:020000040000FA
:10000000A7EF37F0DACFE5FFD9CFE5FFE2CFDAFF90
:10001000E1CFD9FF00C0E5FF01C0E5FF02C0E5FF69
:1000200003C0E5FF04C0E5FF05C0E5FF06C0E5FF2E
:1000300007C0E5FF08C0E5FF09C0E5FF0AC0E5FF0E
:100040000BC0E5FF0CC0E5FF0DC0E5FF0EC0E5FFEE
:100050000FC0E5FF10C0E5FF11C0E5FF12C0E5FFCE
:1000600013C0E5FF14C0E5FF15C0E5FF16C0E5FFAE
:1000700017C0E5FF18C0E5FF19C0E5FF1AC0E5FF8E
:100080001BC0E5FF1CC0E5FF1DC0E5FF1EC0E5FF6E
:100090001FC0E5FF030EDBCF00F0040EDBCF01F045
:1000A000050EDBCF02F0060EDBCF03F0070EDBCF31
:1000B00004F0080EDBCF05F0090EDBCF06F00A0EC8
:1000C000DBCF07F00050030F086E000E0120096E11
:1000D000000E02200A6E08C0E9FF09C0F3FF0A50B3
:1000E000BFEC36F0086EF3CF09F0F4CF0AF0F29EC1
:1000F0000850110F0B6E000E09200C6E000E0A2026
:100100000D6E0BC0E9FF0CC0F3FF0D5050EC37F043
:100110000E6EF3CF0FF00E500F10D8B498D00850D9
:100120000C0F106E000E0920116E000E0A20126EC8
:1001300010C0E9FF11C0F3FF1250BFEC36F0136E90
:10014000F3CF14F0F4CF15F00850060F166E000E22
:100150000920176E000E0A20186E16C0E9FF17C09E
:10016000F3FF1850BFEC36F0166EF3CF17F0F4CF54
:1001700018F01350161806E11450171803E1155023
:10018000181801E022D00850030F136E000E09204A
:10019000146E000E0A20156E13C0E9FF14C0F3FFA1
:1001A0001550BFEC36F0136EF3CF14F0F4CF15F00A
:1001B00013C0E5FF14C0F4FF15C0F6FF10C0E9FF3F
:1001C00011C0F3FF125099EC37F010C0E9FF11C0D5
:1001D000F3FF1250BFEC36F0136EF3CF14F0F4CFF0
:1001E00015F013C0E9FF14C0F3FF155078EC37F099
:1001F000166E16C0E5FF03C0E9FF04C0F3FF05500B
:10020000BFEC37F0132AD8B0142AD8B0152A13C07F
:10021000E5FF14C0F4FF15C0F6FF10C0E9FF11C0E0
:10022000F3FF125099EC37F0FF0E0E26D8A00F0600
:100230000EC0E5FF0FC0F4FF0BC0E9FF0CC0F3FFD9
:100240000D50B3EC37F0F28EE86AA3EF04F004012E
:100250000451100DF3CF0EF00F6A000E0E26020EA1
:100260000F220F500F6E0E500E6E800E106E0E503D
:10027000090F116E000E0F20126E000E1020136E6B
:1002800011C0E9FF12C0F3FF135078EC37F0116E84
:100290000050020F126E000E0120136E000E02209D
:1002A000146E12C0E9FF13C0F3FF145078EC37F05E
:1002B000156E152A15C0E5FF12C0E9FF13C0F3FF44
:1002C0001450BFEC37F0060E0026000E0122000E7F
:1002D000022200C0E9FF01C0F3FF025050EC37F0EA
:1002E000156EF3CF16F0D8901134176E186A196A8C
:1002F000E60E17266D0E1822000E192217C0F6FF03
:1003000018C0F7FF19C0F8FF0900F5CF17F0090072
:10031000F5CF18F0175015121850161215C0E5FF3A
:1003200016C0F4FF00C0E9FF01C0F3FF0250B3ECB8
:1003300037F0171E181E17500201991718500201A6
:100340009A1706500710D8B4E4D0FEC215F0FFC2C9
:1003500016F0176A186A06C019F007C01AF01B6A6F
:100360001C6A195015261A5016221B5017221C50B1
:100370001822000E185C08E1000E175C05E1FA0E69
:10038000165C02E1000E155C20E30E50070F196E9B
:10039000000E0F201A6E000E10201B6E15501C6EE2
:1003A000060E16241D6EFF0E17201E6EFF0E18205F
:1003B0001F6E1CC0E5FF1DC0F4FF19C0E9FF1AC085
:1003C000F3FF1B50B3EC37F014D00E50070F196E2B
:1003D000000E0F201A6E000E10201B6E15C0E5FFD8
:1003E00016C0F4FF19C0E9FF1AC0F3FF1B50B3ECAD
:1003F00037F00301EC510301ED110301EE11D8B404
:100400004FD0ECC315F0EDC316F0EEC317F00A0E93
:100410001526000E1622000E17220EC0E5FF0FC093
:10042000F4FF10C0F6FF15C0E9FF16C0F3FF175028
:1004300099EC37F00E500D0F156E000E0F20166E52
:10044000000E1020176EECC3E5FFEDC3F4FFEEC302
:10045000F6FF15C0E9FF16C0F3FF175099EC37F00F
:100460000EC0ECF30FC0EDF310C0EEF3ECC315F0CB
:10047000EDC316F0EEC317F00A0E1526000E162275
:10048000000E1722000EE56E000EF46E000EF66EE2
:1004900015C0E9FF16C0F3FF175099EC37F04DD0A7
:1004A0000EC0ECF30FC0EDF310C0EEF30EC0EFF38F
:1004B0000FC0F0F310C0F1F30E500A0F156E000ECE
:1004C0000F20166E000E1020176E000EE56E000E47
:1004D000F46E000EF66E15C0E9FF16C0F3FF17505C
:1004E00099EC37F00E500D0F156E000E0F20166EA2
:1004F000000E1020176E000EE56E000EF46E000E5A
:10050000F66E15C0E9FF16C0F3FF175099EC37F0EF
:1005100014D00E50070F156E000E0F20166E000E31
:100520001020176EE80EE56EFD0EF46E15C0E9FFA3
:1005300016C0F3FF1750B3EC37F082EC25F0F28EC3
:10054000F29E06500710D8B461D10E50070F066E08
:10055000000E0F20076E000E1020156E06C0E9FF7A
:1005600007C0F3FF155050EC37F0166EF3CF17F0BD
:100570001650E90A03E11750FD0A01E058D000C007
:10058000E9FF01C0F3FF025050EC37F0166EF3CFD5
:1005900017F0D8901136186A196AE60E11266D0EFA
:1005A0001822000E192211C0F6FF18C0F7FF19C05B
:1005B000F8FF0900F5CF11F00900F5CF18F0115040
:1005C00016161850171616501710D8B41FD100C0A1
:1005D000E9FF01C0F3FF025050EC37F0166EF3CF85
:1005E00017F0111E181E115016161850171616C0A7
:1005F000E5FF17C0F4FF00C0E9FF01C0F3FF0250A0
:10060000B3EC37F012C0E9FF13C0F3FF145078ECDD
:1006100037F0006E000600C0E5FF12C0E9FF13C00E
:10062000F3FF1450BFEC37F0F28E060E8CD1E80EBB
:10063000E56EFD0EF46E06C0E9FF07C0F3FF15502E
:10064000B3EC37F00E500301EF1908E10F5003012E
:10065000F01904E110500301F11901E04AD00E50E5
:100660000301EC1908E10F500301ED1904E11050EA
:100670000301EE1901E00DD00301EC6B0301ED6BFA
:100680000301EE6B0301EF6B0301F06B0301F16BF0
:10069000BDD00E500A0F006E000E0F20016E000E2E
:1006A0001020026E00C0E9FF01C0F3FF0250BFEC52
:1006B00036F00301EF6FF3CFF0F3F4CFF1F3EFC3B4
:1006C00000F0F0C301F0F1C302F00D0E0026000EA1
:1006D0000122000E0222000EE56E000EF46E000EE6
:1006E000F66E00C0E9FF01C0F3FF025099EC37F04D
:1006F0008DD00E500301EC1908E10F500301ED19E4
:1007000004E110500301EE1901E030D00E500D0F3E
:10071000006E000E0F20016E000E1020026E00C051
:10072000E9FF01C0F3FF0250BFEC36F00301EC6FAC
:10073000F3CFEDF3F4CFEEF3ECC300F0EDC301F033
:10074000EEC302F00A0E0026000E0122000E022265
:10075000000EE56E000EF46E000EF66E00C0E9FFAE
:1007600001C0F3FF025099EC37F050D00E500A0F41
:10077000006E000E0F20016E000E1020026E00C0F1
:10078000E9FF01C0F3FF0250BFEC36F0006EF3CF7B
:1007900001F0F4CF02F000500D0F066E000E0120A4
:1007A000076E000E0220116E0D0E0E26000E0F2297
:1007B000000E10220EC0E9FF0FC0F3FF1050BFEC77
:1007C00036F00E6EF3CF0FF0F4CF10F00EC0E5FF51
:1007D0000FC0F4FF10C0F6FF06C0E9FF07C0F3FF2B
:1007E000115099EC37F00A0E0E26000E0F22000E63
:1007F000102200C0E5FF01C0F4FF02C0F6FF0EC0EA
:10080000E9FF0FC0F3FF105099EC37F008500C0FC0
:10081000006E000E0920016E000E0A20026E00C05C
:10082000E9FF01C0F3FF0250BFEC36F0066EF3CFD4
:1008300007F0F4CF0EF00850060F0F6E000E0920DF
:10084000106E000E0A20116E0FC0E9FF10C0F3FFFA
:100850001150BFEC36F00F6EF3CF10F0F4CF11F063
:1008600006500F1806E10750101803E10E5011183A
:1008700001E01FD0030E0826000E0922000E0A22F6
:1008800008C0E9FF09C0F3FF0A50BFEC36F0086E5C
:10089000F3CF09F0F4CF0AF008C0E5FF09C0F4FF78
:1008A0000AC0F6FF00C0E9FF01C0F3FF025099EC57
:1008B00037F000C0E9FF01C0F3FF0250BFEC36F093
:1008C000066EF3CF07F0F4CF08F006C0E9FF07C0CB
:1008D000F3FF085078EC37F0096E09C0E5FF03C05C
:1008E000E9FF04C0F3FF0550BFEC37F0062AD8B08B
:1008F000072AD8B0082A06C0E5FF07C0F4FF08C0E1
:10090000F6FF00C0E9FF01C0F3FF025099EC37F099
:100910000BC0E9FF0CC0F3FF0D5050EC37F0006E38
:10092000F3CF01F0FF0E0026D8A0010600C0E5FFBE
:1009300001C0F4FF0BC0E9FF0CC0F3FF0D50B3EC96
:1009400037F0F28EE86AE4CF1FF0E4CF1EF0E4CF78
:100950001DF0E4CF1CF0E4CF1BF0E4CF1AF0E4CF9D
:1009600019F0E4CF18F0E4CF17F0E4CF16F0E4CF9D
:1009700015F0E4CF14F0E4CF13F0E4CF12F0E4CF9D
:1009800011F0E4CF10F0E4CF0FF0E4CF0EF0E4CF9D
:100990000DF0E4CF0CF0E4CF0BF0E4CF0AF0E4CF9D
:1009A00009F0E4CF08F0E4CF07F0E4CF06F0E4CF9D
:1009B00005F0E4CF04F0E4CF03F0E4CF02F0E4CF9D
:1009C00001F0E4CF00F0E4CFD9FFE4CFDAFF12006A
:1009D000DACFE5FFD9CFE5FFE2CFDAFFE1CFD9FFEC
:1009E00000C0E5FF01C0E5FF02C0E5FF03C0E5FF71
:1009F00004C0E5FF05C0E5FF06C0E5FF07C0E5FF51
:100A000008C0E5FF09C0E5FF0AC0E5FF0BC0E5FF30
:100A10000CC0E5FF0DC0E5FF0EC0E5FF0FC0E5FF10
:100A200010C0E5FF11C0E5FF12C0E5FF13C0E5FFF0
:100A300014C0E5FF15C0E5FF16C0E5FF030EDBCFD0
:100A400000F0040EDBCF01F0050EDBCF02F0060E46
:100A5000DBCF03F0070EDBCF04F0F29E0050010F56
:100A6000056E000E0120066E000E0220076E05C006
:100A7000E9FF06C0F3FF075078EC37F0086E085026
:100A80000EE0080608C0E5FF05C0E9FF06C0F3FF59
:100A90000750BFEC37F0F28EE86A30EF08F004013F
:100AA0000451100DF3CF05F0066A000E0526020E64
:100AB00006220650066E0550056E800E076E055024
:100AC000090F086E000E0620096E000E07200A6E40
:100AD00008C0E9FF09C0F3FF0A5078EC37F0086E50
:100AE0000050020F096E000E01200A6E000E022057
:100AF0000B6E09C0E9FF0AC0F3FF0B5078EC37F02A
:100B00000C6E0C2A0CC0E5FF09C0E9FF0AC0F3FF18
:100B10000B50BFEC37F0030E0026000E0122000E32
:100B2000022200C0E9FF01C0F3FF025050EC37F091
:100B30000C6EF3CF0DF0D89008340E6E0F6A106A69
:100B4000E60E0E266D0E0F22000E10220EC0F6FFCE
:100B50000FC0F7FF10C0F8FF0900F5CF0EF0090035
:100B6000F5CF0FF00E500C120F500D120CC0E5FF18
:100B70000DC0F4FF00C0E9FF01C0F3FF0250B3EC69
:100B800037F00E1E0F1E0E50020199170F50020172
:100B90009A1703500410D8B4E4D0FEC20CF0FFC280
:100BA0000DF00E6A0F6A03C010F004C011F0126A53
:100BB000136A10500C2611500D2212500E221350A1
:100BC0000F22000E0F5C08E1000E0E5C05E1FA0E2C
:100BD0000D5C02E1000E0C5C20E30550070F106E67
:100BE000000E0620116E000E0720126E0C50136EC0
:100BF000060E0D24146EFF0E0E20156EFF0E0F2034
:100C0000166E13C0E5FF14C0F4FF10C0E9FF11C059
:100C1000F3FF1250B3EC37F014D00550070F106EED
:100C2000000E0620116E000E0720126E0CC0E5FFAC
:100C30000DC0F4FF10C0E9FF11C0F3FF1250B3EC78
:100C400037F00301EC510301ED110301EE11D8B4AB
:100C50004FD0ECC30CF0EDC30DF0EEC30EF00A0E56
:100C60000C26000E0D22000E0E2205C0E5FF06C068
:100C7000F4FF07C0F6FF0CC0E9FF0DC0F3FF0E50F4
:100C800099EC37F005500D0F0C6E000E06200D6E1E
:100C9000000E07200E6EECC3E5FFEDC3F4FFEEC3BC
:100CA000F6FF0CC0E9FF0DC0F3FF0E5099EC37F0D2
:100CB00005C0ECF306C0EDF307C0EEF3ECC30CF097
:100CC000EDC30DF0EEC30EF00A0E0C26000E0D2241
:100CD000000E0E22000EE56E000EF46E000EF66E93
:100CE0000CC0E9FF0DC0F3FF0E5099EC37F04DD06A
:100CF00005C0ECF306C0EDF307C0EEF305C0EFF35B
:100D000006C0F0F307C0F1F305500A0F0C6E000E99
:100D100006200D6E000E07200E6E000EE56E000E12
:100D2000F46E000EF66E0CC0E9FF0DC0F3FF0E501E
:100D300099EC37F005500D0F0C6E000E06200D6E6D
:100D4000000E07200E6E000EE56E000EF46E000E13
:100D5000F66E0CC0E9FF0DC0F3FF0E5099EC37F0B2
:100D600014D00550070F0C6E000E06200D6E000EFD
:100D700007200E6EE80EE56EFD0EF46E0CC0E9FF66
:100D80000DC0F3FF0E50B3EC37F082EC25F00350AA
:100D90000410D8B463D1F28EF29E0550070F036E93
:100DA000000E0620046E000E07200C6E03C0E9FF43
:100DB00004C0F3FF0C5050EC37F00D6EF3CF0EF083
:100DC0000D50E90A03E10E50FD0A01E058D000C0C1
:100DD000E9FF01C0F3FF025050EC37F00D6EF3CF86
:100DE0000EF0D89008360F6A106AE60E08266D0ECF
:100DF0000F22000E102208C0F6FF0FC0F7FF10C030
:100E0000F8FF0900F5CF08F00900F5CF0FF0085002
:100E10000D160F500E160D500E10D8B41FD100C075
:100E2000E9FF01C0F3FF025050EC37F00D6EF3CF35
:100E30000EF0081E0F1E08500D160F500E160DC096
:100E4000E5FF0EC0F4FF00C0E9FF01C0F3FF025050
:100E5000B3EC37F009C0E9FF0AC0F3FF0B5078ECA0
:100E600037F0006E000600C0E5FF09C0E9FF0AC0C8
:100E7000F3FF0B50BFEC37F0F28E060EF1D0E80E08
:100E8000E56EFD0EF46E03C0E9FF04C0F3FF0C50E5
:100E9000B3EC37F005500301EF1908E106500301E8
:100EA000F01904E107500301F11901E04AD005509F
:100EB0000301EC1908E106500301ED1904E10750A4
:100EC0000301EE1901E00DD00301EC6B0301ED6BA2
:100ED0000301EE6B0301EF6B0301F06B0301F16B98
:100EE000BDD005500A0F006E000E0620016E000EE8
:100EF0000720026E00C0E9FF01C0F3FF0250BFEC03
:100F000036F00301EF6FF3CFF0F3F4CFF1F3EFC35B
:100F100000F0F0C301F0F1C302F00D0E0026000E48
:100F20000122000E0222000EE56E000EF46E000E8D
:100F3000F66E00C0E9FF01C0F3FF025099EC37F0F4
:100F40008DD005500301EC1908E106500301ED199D
:100F500004E107500301EE1901E030D005500D0FF8
:100F6000006E000E0620016E000E0720026E00C00B
:100F7000E9FF01C0F3FF0250BFEC36F00301EC6F54
:100F8000F3CFEDF3F4CFEEF3ECC300F0EDC301F0DB
:100F9000EEC302F00A0E0026000E0122000E02220D
:100FA000000EE56E000EF46E000EF66E00C0E9FF56
:100FB00001C0F3FF025099EC37F050D005500A0FF2
:100FC000006E000E0620016E000E0720026E00C0AB
:100FD000E9FF01C0F3FF0250BFEC36F0006EF3CF23
:100FE00001F0F4CF02F000500D0F036E000E01204F
:100FF000046E000E0220086E0D0E0526000E06225D
:10100000000E072205C0E9FF06C0F3FF0750BFEC42
:1010100036F0056EF3CF06F0F4CF07F005C0E5FF1C
:1010200006C0F4FF07C0F6FF03C0E9FF04C0F3FFEA
:10103000085099EC37F00A0E0526000E0622000E25
:10104000072200C0E5FF01C0F4FF02C0F6FF05C0A3
:10105000E9FF06C0F3FF075099EC37F0F28EE86A1B
:10106000E4CF16F0E4CF15F0E4CF14F0E4CF13F0A2
:10107000E4CF12F0E4CF11F0E4CF10F0E4CF0FF0A2
:10108000E4CF0EF0E4CF0DF0E4CF0CF0E4CF0BF0A2
:10109000E4CF0AF0E4CF09F0E4CF08F0E4CF07F0A2
:1010A000E4CF06F0E4CF05F0E4CF04F0E4CF03F0A2
:1010B000E4CF02F0E4CF01F0E4CF00F0E4CFD9FFB9
:1010C000E4CFDAFF1200DACFE5FFD9CFE5FFE2CFB8
:1010D000DAFFE1CFD9FF00C0E5FF01C0E5FF02C0A4
:1010E000E5FF03C0E5FF04C0E5FF05C0E5FF06C05E
:1010F000E5FF07C0E5FF030EDBCF00F0040EDBCFFA
:1011000001F0050EDBCF02F0000E02019325036E05
:10111000030E02019421046E0450066E0350056E06
:10112000800E076E0450036E046AF10EE56E05C072
:10113000E9FF06C0F3FF0750BFEC37F0052AD8B02F
:10114000062AD8B0072AA50EE56E05C0E9FF06C03D
:10115000F3FF0750BFEC37F0052AD8B0062AD8B005
:10116000072A000EE56E05C0E9FF06C0F3FF075031
:10117000BFEC37F0052AD8B0062AD8B0072AB00E3F
:10118000E56E05C0E9FF06C0F3FF0750BFEC37F07E
:10119000052AD8B0062AD8B0072A03C0E5FF05C043
:1011A000E9FF06C0F3FF0750BFEC37F0052AD8B0BF
:1011B000062AD8B0072AF20EE56E05C0E9FF06C080
:1011C000F3FF0750BFEC37F0052AD8B0062AD8B095
:1011D000072AF00EE56E05C0E9FF06C0F3FF0750D1
:1011E000BFEC37F0052AD8B0062AD8B0072AF00E8F
:1011F000E56E05C0E9FF06C0F3FF0750BFEC37F00E
:10120000052AD8B0062AD8B0072AB20EE56E05C066
:10121000E9FF06C0F3FF0750BFEC37F0052AD8B04E
:10122000062AD8B0072AB30EE56E05C0E9FF06C04E
:10123000F3FF0750BFEC37F0052AD8B0062AD8B024
:10124000072AB40EE56E05C0E9FF06C0F3FF07509C
:10125000BFEC37F0052AD8B0062AD8B0072AB50E59
:10126000E56E05C0E9FF06C0F3FF0750BFEC37F09D
:10127000052AD8B0062AD8B0072AD00EE56E05C0D8
:10128000E9FF06C0F3FF0750BFEC37F0052AD8B0DE
:10129000062AD8B0072AD10EE56E05C0E9FF06C0C0
:1012A000F3FF0750BFEC37F0052AD8B0062AD8B0B4
:1012B000072AA30EE56E05C0E9FF06C0F3FF07503D
:1012C000BFEC37F0052AD8B0062AD8B0072AA20EFC
:1012D000E56E05C0E9FF06C0F3FF0750BFEC37F02D
:1012E000052AD8B0062AD8B0072AA10EE56E05C097
:1012F000E9FF06C0F3FF0750BFEC37F0052AD8B06E
:10130000062AD8B0072AA00EE56E05C0E9FF06C080
:10131000F3FF0750BFEC37F0052AD8B0062AD8B043
:10132000072AB30EE56E05C0E9FF06C0F3FF0750BC
:10133000BFEC37F0052AD8B0062AD8B0072AB20E7B
:10134000E56E05C0E9FF06C0F3FF0750BFEC37F0BC
:10135000052AD8B0062AD8B0072AB10EE56E05C016
:10136000E9FF06C0F3FF0750BFEC37F0052AD8B0FD
:10137000062AD8B0072AB00EE56E05C0E9FF06C000
:10138000F3FF0750BFEC37F0052AD8B0062AD8B0D3
:10139000072AE30EE56E05C0E9FF06C0F3FF07501C
:1013A000BFEC37F0052AD8B0062AD8B0072AE20EDB
:1013B000E56E05C0E9FF06C0F3FF0750BFEC37F04C
:1013C000052AD8B0062AD8B0072AE10EE56E05C076
:1013D000E9FF06C0F3FF0750BFEC37F0052AD8B08D
:1013E000062AD8B0072AE00EE56E05C0E9FF06C060
:1013F000F3FF0750BFEC37F0052AD8B0062AD8B063
:10140000072AFB0EE56E05C0E9FF06C0F3FF075093
:10141000BFEC37F0052AD8B0062AD8B0072AFF0E4D
:10142000E56E05C0E9FF06C0F3FF0750BFEC37F0DB
:10143000052AD8B0062AD8B0072AAE0EE56E05C038
:10144000E9FF06C0F3FF0750BFEC37F0052AD8B01C
:10145000062AD8B0072ABE0EE56E05C0E9FF06C011
:10146000F3FF0750BFEC37F0052AD8B0062AD8B0F2
:10147000072AD30EE56E05C0E9FF06C0F3FF07504B
:10148000BFEC37F0052AD8B0062AD8B0072AD20E0A
:10149000E56E05C0E9FF06C0F3FF0750BFEC37F06B
:1014A000052AD8B0062AD8B0072AD10EE56E05C0A5
:1014B000E9FF06C0F3FF0750BFEC37F0052AD8B0AC
:1014C000062AD8B0072AD00EE56E05C0E9FF06C08F
:1014D000F3FF0750BFEC37F0052AD8B0062AD8B082
:1014E000072A100EE56E05C0E9FF06C0F3FF07509E
:1014F000BFEC37F0052AD8B0062AD8B0072A100E5C
:10150000E56E05C0E9FF06C0F3FF0750BFEC37F0FA
:10151000052AD8B0062AD8B0072A100EE56E05C0F5
:10152000E9FF06C0F3FF0750BFEC37F0052AD8B03B
:10153000062AD8B0072A100EE56E05C0E9FF06C0DE
:10154000F3FF0750BFEC37F0052AD8B0062AD8B011
:10155000072A100EE56E05C0E9FF06C0F3FF07502D
:10156000BFEC37F0052AD8B0062AD8B0072A100EEB
:10157000E56E05C0E9FF06C0F3FF0750BFEC37F08A
:10158000052AD8B0062AD8B0072A100EE56E05C085
:10159000E9FF06C0F3FF0750BFEC37F0052AD8B0CB
:1015A000062AD8B0072A100EE56E05C0E9FF06C06E
:1015B000F3FF0750BFEC37F0052AD8B0062AD8B0A1
:1015C000072A100EE56E05C0E9FF06C0F3FF0750BD
:1015D000BFEC37F0052AD8B0062AD8B0072A100E7B
:1015E000E56E05C0E9FF06C0F3FF0750BFEC37F01A
:1015F000052AD8B0062AD8B0072A100EE56E05C015
:10160000E9FF06C0F3FF0750BFEC37F0052AD8B05A
:10161000062AD8B0072A100EE56E05C0E9FF06C0FD
:10162000F3FF0750BFEC37F0052AD8B0062AD8B030
:10163000072A100EE56E05C0E9FF06C0F3FF07504C
:10164000BFEC37F0052AD8B0062AD8B0072A100E0A
:10165000E56E05C0E9FF06C0F3FF0750BFEC37F0A9
:10166000052AD8B0062AD8B0072A100EE56E05C0A4
:10167000E9FF06C0F3FF0750BFEC37F0052AD8B0EA
:10168000062AD8B0072A100EE56E05C0E9FF06C08D
:10169000F3FF0750BFEC37F0052AD8B0062AD8B0C0
:1016A000072AC10EE56E05C0E9FF06C0F3FF07502B
:1016B000BFEC37F0052AD8B0062AD8B0072AC20EE8
:1016C000E56E05C0E9FF06C0F3FF0750BFEC37F039
:1016D000052AD8B0062AD8B0072A0050026E02C0E8
:1016E000E5FF05C0E9FF06C0F3FF0750BFEC37F088
:1016F000052AD8B0062AD8B0072A0150006E016A20
:1017000000C0E5FF05C0E9FF06C0F3FF0750BFECCE
:1017100037F0052AD8B0062AD8B0072A000EE56EA1
:1017200005C0E9FF06C0F3FF0750BFEC37F0052AFC
:10173000D8B0062AD8B0072A010EE56E05C0E9FF29
:1017400006C0F3FF0750BFEC37F0E4CF07F0E4CF5B
:1017500006F0E4CF05F0E4CF04F0E4CF03F0E4CFEB
:1017600002F0E4CF01F0E4CF00F0E4CFD9FFE4CF02
:10177000DAFF1200DACFE5FFD9CFE5FFE2CFDAFFDB
:10178000E1CFD9FF00C0E5FF01C0E5FF02C0E5FFE2
:1017900003C0E5FF04C0E5FF05C0E5FF06C0E5FFA7
:1017A00007C0E5FF08C0E5FF09C0E5FF0AC0E5FF87
:1017B0000BC0E5FF030EDBCF00F0040EDBCF01F022
:1017C000050EDBCF02F0F29E0050010F036E000EFB
:1017D0000120046E000E0220056E03C0E9FF04C064
:1017E000F3FF055078EC37F0066E0650090A01E069
:1017F000ADD00A0EE56E03C0E9FF04C0F3FF05504B
:10180000BFEC37F00050020F036E000E0120046E93
:10181000000E0220056E04C4E5FF03C0E9FF04C00A
:10182000F3FF0550BFEC37F00050040F036E000EBD
:101830000120046E000E0220056E04010451100DFB
:10184000F3CF06F0076A000E0626020E0722090EE5
:101850000626D8B0072A06C0E9FF07C0EAFFEFCF87
:1018600008F008C0E5FF03C0E9FF04C0F3FF05501E
:10187000BFEC37F00050030F096E000E01200A6E16
:10188000000E02200B6E09C0E9FF0AC0F3FF0B50E7
:1018900078EC37F0096E0950085CD8B054D006C017
:1018A000E9FF07C0EAFF09C0EFFFA40E0924066E96
:1018B000076A030E072206C0E9FF07C0EAFF04C457
:1018C000EFFF03C0E9FF04C0F3FF055078EC37F0E9
:1018D000036ED8900336046A056AE60E03266D0E81
:1018E0000422000E052203C0F6FF04C0F7FF05C066
:1018F000F8FF0900F5CF03F00900F5CF04F0031E4F
:10190000041E035002019917045002019A17D8903F
:101910000936036A046AE60E09266D0E0322000EDC
:10192000042209C0F6FF03C0F7FF04C0F8FF090056
:10193000F5CF09F00900F5CF03F009500201991322
:10194000035002019A13F28EE86A06D10401045191
:10195000100DF3CF03F0046A000E0326020E0422DA
:10196000090E0326D8B0042A03C0E9FF04C0EAFF29
:10197000EFCF03F00050050F046E000E0120056E3E
:10198000000E0220066E04C0E9FF05C0F3FF0650FA
:1019900078EC37F0076E072A07C0E5FF04C0E9FFBF
:1019A00005C0F3FF0650BFEC37F00050060F046E81
:1019B000000E0120056E000E0220066E04C0E9FF35
:1019C00005C0F3FF065050EC37F0076EF3CF08F078
:1019D000D8900334096E0A6A0B6AE60E09266D0E6A
:1019E0000A22000E0B2209C0F6FF0AC0F7FF0BC047
:1019F000F8FF0900F5CF09F00900F5CF0AF009500A
:101A000007120A50081207C0E5FF08C0F4FF04C01F
:101A1000E9FF05C0F3FF0650B3EC37F0091E0A1EBC
:101A20000950020199170A5002019A1782EC25F019
:101A3000F28EF29E0050020F046E000E0120056E21
:101A4000000E0220066E04C4E5FF04C0E9FF05C0D5
:101A5000F3FF0650BFEC37F00050040F046E000E89
:101A60000120056E000E0220066E03C0E5FF04C0D3
:101A7000E9FF05C0F3FF0650BFEC37F0030E002668
:101A8000000E0122000E022200C0E9FF01C0F3FF98
:101A9000025078EC37F0006E0050035CD8B05AD09A
:101AA00004010451100DF3CF01F0026A000E01266B
:101AB000020E0222090E0126D8B0022A01C0E9FF57
:101AC00002C0EAFF00C0EFFFA40E0024016E026A0C
:101AD000030E022201C0E9FF02C0EAFF04C4EFFFC7
:101AE000D8900336016A026AE60E03266D0E0122C3
:101AF000000E022203C0F6FF01C0F7FF02C0F8FF8C
:101B00000900F5CF03F00900F5CF01F0031E011E17
:101B1000035002019917015002019A17D89000361C
:101B2000016A026AE60E00266D0E0122000E0222F4
:101B300000C0F6FF01C0F7FF02C0F8FF0900F5CFB3
:101B400000F00900F5CF01F0005002019913015097
:101B500002019A13F28EE86AE4CF0BF0E4CF0AF0A8
:101B6000E4CF09F0E4CF08F0E4CF07F0E4CF06F0CB
:101B7000E4CF05F0E4CF04F0E4CF03F0E4CF02F0CB
:101B8000E4CF01F0E4CF00F0E4CFD9FFE4CFDAFFF7
:101B90001200DACFE5FFD9CFE5FFE2CFDAFFE1CFE0
:101BA000D9FF00C0E5FF01C0E5FF02C0E5FF03C0AB
:101BB000E5FF04C0E5FF05C0E5FF06C0E5FF07C07F
:101BC000E5FF08C0E5FF09C0E5FF0AC0E5FF0BC05F
:101BD000E5FFEFC300F0F0C301F0F1C302F00050E5
:101BE00001100210D8B451D10050070F036E000E3F
:101BF0000120046E000E0220056E03C0E9FF04C040
:101C0000F3FF055050EC37F0066EF3CF07F00650A7
:101C10000201FE1904E107500201FF1901E01FD182
:101C20000050090F066E000E0120076E000E022004
:101C3000086E06C0E9FF07C0F3FF085078EC37F0E4
:101C4000066ED8900636076A086AE60E06266D0EFE
:101C50000722000E082206C0F6FF07C0F7FF08C0E3
:101C6000F8FF0900F5CF06F00900F5CF07F00650A0
:101C700002019913075002019A13E90EE56EFD0E59
:101C8000F46E03C0E9FF04C0F3FF0550B3EC37F076
:101C900000500301EF1908E101500301F01904E1BC
:101CA00002500301F11901E04AD000500301EC1980
:101CB00008E101500301ED1904E102500301EE199E
:101CC00001E00DD00301EC6B0301ED6B0301EE6B42
:101CD0000301EF6B0301F06B0301F16BC0D0005007
:101CE0000A0F036E000E0120046E000E0220056E26
:101CF00003C0E9FF04C0F3FF0550BFEC36F0030159
:101D0000EF6FF3CFF0F3F4CFF1F3EFC303F0F0C3D1
:101D100004F0F1C305F00D0E0326000E0422000EA0
:101D20000522000EE56E000EF46E000EF66E03C086
:101D3000E9FF04C0F3FF055099EC37F090D0005054
:101D40000301EC1908E101500301ED1904E102500F
:101D50000301EE1901E030D000500D0F036E000EAC
:101D60000120046E000E0220056E03C0E9FF04C0CE
:101D7000F3FF0550BFEC36F00301EC6FF3CFEDF34A
:101D8000F4CFEEF3ECC303F0EDC304F0EEC305F0C3
:101D90000A0E0326000E0422000E0522000EE56E38
:101DA000000EF46E000EF66E03C0E9FF04C0F3FFF0
:101DB000055099EC37F053D000500A0F036E000E17
:101DC0000120046E000E0220056E03C0E9FF04C06E
:101DD000F3FF0550BFEC36F0036EF3CF04F0F4CF01
:101DE00005F003500D0F066E000E0420076E000E66
:101DF0000520086E00500D0F096E000E01200A6EBE
:101E0000000E02200B6E09C0E9FF0AC0F3FF0B5061
:101E1000BFEC36F0096EF3CF0AF0F4CF0BF009C037
:101E2000E5FF0AC0F4FF0BC0F6FF06C0E9FF07C0DC
:101E3000F3FF085099EC37F00A0E0926000E0A222B
:101E4000000E0B2203C0E5FF04C0F4FF05C0F6FF3F
:101E500009C0E9FF0AC0F3FF0B5099EC37F00050BE
:101E60000A0F036E000E0120046E000E0220056EA4
:101E700003C0E9FF04C0F3FF0550BFEC36F0006E6D
:101E8000F3CF01F0F4CF02F0AAD6040E0201A85D50
:101E900003E1000E0201A75DD8A039D00201A76BB3
:101EA0000201A86B0201A15102019D270201A2516A
:101EB00002019E230201A35102019F230201A451AA
:101EC0000201A023D89002019F31016E02019E31D0
:101ED000006ED890013200320201A051E840E84083
:101EE000C00B01120201A041E8403F0B026E036AE1
:101EF00000500201A56F01500201A66F02019D6B07
:101F000002019E6B02019F6B0201A06B15D00201C2
:101F1000A15102019D270201A25102019E2302014B
:101F2000A35102019F230201A4510201A023020137
:101F3000A72B02E30201A82BBECFA1F20201A26BE4
:101F40000201A36B0201A46BE4CF0BF0E4CF0AF013
:101F5000E4CF09F0E4CF08F0E4CF07F0E4CF06F0D7
:101F6000E4CF05F0E4CF04F0E4CF03F0E4CF02F0D7
:101F7000E4CF01F0E4CF00F0E4CFD9FFE4CFDAFF03
:101F80001200DACFE5FFD9CFE5FFE2CFDAFFE1CFEC
:101F9000D9FF00C0E5FF01C0E5FF02C0E5FF03C0B7
:101FA000E5FF04C0E5FF05C0E5FF06C0E5FF07C08B
:101FB000E5FF08C0E5FF09C0E5FF0AC0E5FF0BC06B
:101FC000E5FF0CC0E5FF0DC0E5FF0EC0E5FF0FC04B
:101FD000E5FF10C0E5FF11C0E5FF12C0E5FF13C02B
:101FE000E5FF14C0E5FF15C0E5FF030EDBCF00F0F1
:101FF000040EDBCF01F0050EDBCF02F0060EDBCFC7
:1020000003F0070EDBCF04F0080EDBCF05F0090E5E
:10201000DBCF06F00A0EDBCF07F00B0EDBCF08F0AC
:10202000096A0401045101E0F29E000E075C02E11E
:10203000380E065C06E20401045101E0F28E020E45
:102040005AD10650020193250A6E075002019421CD
:102050000B6E000E0B5C02E1810E0A5C06E30401CC
:10206000045101E0F28E010E46D108501EE0100E20
:10207000085C06E30401045101E0F28E030E3BD13B
:10208000A40E08240A6E0B6A030E0B220AC0E9FF95
:102090000BC0EAFFEFCF0CF00C50FF0A0CE004017C
:1020A000045101E0F28E040E26D10401045101E036
:1020B000F28E070E20D10401052B0C6A0D6A070E63
:1020C0000D5CD8B03AD0010E0E6E000E0F6E000EF1
:1020D000106E000E116E0D5008E0E86CD8900E36B0
:1020E0000F3610361136010FFAE30201A9510E1412
:1020F000126E0201AA510F14136E0201AB5110149B
:10210000146E0201AC511114156E125013101410FC
:1021100015100FE10C28096E0E500201A9130F5083
:102120000201AA1310500201AB1311500201AC13AB
:1021300004D00D2A0DC00CF0C2D70950100DF3CFFA
:102140000CF00D6A000E0C26020E0D220D500D6EC5
:102150000C500C6E800E0E6E03C0E5FF04C0F4FF41
:1021600005C0F6FF0CC0E9FF0DC0F3FF0E5099EC5F
:1021700037F00C50030F036E000E0D20046E000E9E
:102180000E20056E02019751380F0F6E000E0201EE
:102190009821106E0FC0E5FF10C0F4FF03C0E9FFE7
:1021A00004C0F3FF0550B3EC37F00C50050F036E7D
:1021B000000E0D20046E000E0E20056E97C2E5FF86
:1021C00098C2F4FF03C0E9FF04C0F3FF0550B3EC6D
:1021D00037F00C50090F036E000E0D20046E000E38
:1021E0000E20056E08C0E5FF03C0E9FF04C0F3FF41
:1021F0000550BFEC37F00AC0E9FF0BC0EAFF09C089
:10220000EFFF0750E56E0650E56E0250E56E015097
:10221000E56E0050E56E63EC08F0050EE126D8B0DF
:10222000E22A065002019327075002019423065028
:10223000020197270750020198230C50070F006EE8
:10224000000E0D20016E000E0E20026EE80EE56EEF
:10225000FD0EF46E00C0E9FF01C0F3FF0250B3ECC5
:1022600037F00C500A0F006E000E0D20016E000EAC
:102270000E20026E000EE56E000EF46E000EF66E7D
:1022800000C0E9FF01C0F3FF025099EC37F00D0EDA
:102290000C26000E0D22000E0E22000EE56E000E22
:1022A000F46E000EF66E0CC0E9FF0DC0F3FF0E5089
:1022B00099EC37F0D8900836006A016AE60E0826D5
:1022C0006D0E0022000E012208C0F6FF00C0F7FFCD
:1022D00001C0F8FF0900F5CF08F00900F5CF00F0C4
:1022E000085002019913005002019A13040104518D
:1022F00001E0F28EE86AE4CF15F0E4CF14F0E4CF09
:1023000013F0E4CF12F0E4CF11F0E4CF10F0E4CFFB
:102310000FF0E4CF0EF0E4CF0DF0E4CF0CF0E4CFFB
:102320000BF0E4CF0AF0E4CF09F0E4CF08F0E4CFFB
:1023300007F0E4CF06F0E4CF05F0E4CF04F0E4CFFB
:1023400003F0E4CF02F0E4CF01F0E4CF00F0E4CFFB
:10235000D9FFE4CFDAFF1200DACFE5FFD9CFE5FFEE
:10236000E2CFDAFFE1CFD9FF00C0E5FF01C0E5FF12
:1023700002C0E5FF03C0E5FF04C0E5FF05C0E5FFBF
:1023800006C0E5FF07C0E5FF08C0E5FF09C0E5FF9F
:102390000AC0E5FF0BC0E5FF0CC0E5FF0DC0E5FF7F
:1023A0000EC0E5FF0FC0E5FF10C0E5FF11C0E5FF5F
:1023B000030EDBCF00F0040EDBCF01F0050EDBCF08
:1023C00002F0060EDBCF03F0070EDBCF04F0080EA1
:1023D000DBCF05F0090EDBCF06F00A0EDBCF07F0EE
:1023E0000201AD5102E0020E4ED10401045101E0A0
:1023F000F29E035002019525086E045002019621B9
:10240000096E000E095C02E1810E085C06E304011E
:10241000045101E0F28E010E36D10A6A0B6A0C6A91
:102420000D6A0B50800F800F02E1040E0A5C37E248
:102430000B50800F800F02E1030E0A5C06E30401DB
:10244000045101E0F28E010E1ED1D30E0C240E6E4B
:10245000020E0D200F6E0EC0E9FF0FC0EAFFEFCF96
:1024600010F01050010A13E00EC0E9FF0FC0EAFFA0
:10247000010EEF6ED30E0C240E6E020E0D200F6EA9
:102480000F500F6E0E500E6E800E106E08D0080E9C
:102490000C26D8B00D2A0A2AD8B00B2AC2D7800E33
:1024A000020195250A6E000E020196210B6E0B505B
:1024B0000B6E0A500A6E800E0C6E0AC0E5FF0BC050
:1024C000F4FF0CC0F6FF00C0E9FF01C0F3FF0250AB
:1024D00099EC37F008C095F209C096F200500F0F42
:1024E000086E000E0120096E000E02200D6E03C062
:1024F000E5FF04C0F4FF08C0E9FF09C0F3FF0D5079
:10250000B3EC37F00050110F086E000E0120096E79
:10251000000E02200D6E000EE56E000EF46E08C077
:10252000E9FF09C0F3FF0D50B3EC37F00050030F83
:10253000086E000E0120096E000E02200D6E0AC00A
:10254000E5FF0BC0F4FF0CC0F6FF08C0E9FF09C0AF
:10255000F3FF0D5099EC37F00050060F086E000E97
:102560000120096E000E02200D6E116A0A5003262A
:102570000B5004220C50112203C0E5FF04C0F4FFED
:1025800011C0F6FF08C0E9FF09C0F3FF0D5099EC38
:1025900037F00050090F036E000E0120046E000E8C
:1025A0000220086E0AC0E5FF0BC0F4FF0CC0F6FF66
:1025B00003C0E9FF04C0F3FF085099EC37F0005066
:1025C0000C0F036E000E0120046E000E0220086E38
:1025D0000AC0E5FF0BC0F4FF0CC0F6FF03C0E9FF23
:1025E00004C0F3FF085099EC37F00E50030F036E50
:1025F000000E0F20046E000E1020086E00C0E5FFD4
:1026000001C0F4FF02C0F6FF03C0E9FF04C0F3FFFE
:10261000085099EC37F00E50020F006E000E0F209C
:10262000016E000E1020026E000EE56E00C0E9FF84
:1026300001C0F3FF0250BFEC37F00E50060F006EE2
:10264000000E0F20016E000E1020026E000EE56ECF
:10265000000EF46E00C0E9FF01C0F3FF0250B3ECBE
:1026600037F00EC0E5FF0FC0F4FF10C0F6FF05C045
:10267000E9FF06C0F3FF075099EC37F0040104515D
:1026800001E0F28EE86AE4CF11F0E4CF10F0E4CF7D
:102690000FF0E4CF0EF0E4CF0DF0E4CF0CF0E4CF78
:1026A0000BF0E4CF0AF0E4CF09F0E4CF08F0E4CF78
:1026B00007F0E4CF06F0E4CF05F0E4CF04F0E4CF78
:1026C00003F0E4CF02F0E4CF01F0E4CF00F0E4CF78
:1026D000D9FFE4CFDAFF1200DACFE5FFD9CFE5FF6B
:1026E000E2CFDAFFE1CFD9FF00C0E5FF01C0E5FF8F
:1026F00002C0E5FF03C0E5FF04C0E5FF05C0E5FF3C
:1027000006C0E5FF07C0E5FF08C0E5FF09C0E5FF1B
:102710000AC0E5FF0BC0E5FF0CC0E5FF0DC0E5FFFB
:102720000EC0E5FF0FC0E5FF030EDBCF00F0040E87
:10273000DBCF01F0050EDBCF02F0060EDBCF03F09E
:102740000050030F046E000E0120056E000E0220E3
:10275000066E04C0E9FF05C0F3FF0650BFEC36F07B
:10276000046EF3CF05F0F4CF06F00201AD5101E1A4
:10277000F29E0450110F076E000E0520086E000E29
:102780000620096E07C0E9FF08C0F3FF095050ECAE
:1027900037F00A6EF3CF0BF004500F0F0C6E000EE3
:1027A00005200D6E000E06200E6E0CC0E9FF0DC058
:1027B000F3FF0E5050EC37F00C6EF3CF0DF00D50D0
:1027C0000B5C02E10C500A5C0FE20A2AD8B00B2A1B
:1027D0000AC0E5FF0BC0F4FF07C0E9FF08C0F3FF24
:1027E0000950B3EC37F006D00201AD5101E1F28E91
:1027F000010E04D10450090F076E000E0520086E6B
:10280000000E0620096E07C0E9FF08C0F3FF09505B
:10281000BFEC36F00A6EF3CF0BF0F4CF0CF004509F
:10282000060F0D6E000E05200E6E000E06200F6EB8
:102830000DC0E9FF0EC0F3FF0F50BFEC36F00D6E78
:10284000F3CF0EF0F4CF0FF00A500D1806E10B5045
:102850000E1803E10C500F1801E01FD0030E0426E0
:10286000000E0522000E062204C0E9FF05C0F3FF9A
:102870000650BFEC36F0046EF3CF05F0F4CF06F04F
:1028800004C0E5FF05C0F4FF06C0F6FF07C0E9FF7E
:1028900008C0F3FF095099EC37F007C0E9FF08C002
:1028A000F3FF0950BFEC36F0046EF3CF05F0F4CF20
:1028B00006F003C0E5FF04C0E9FF05C0F3FF0650C2
:1028C000BFEC37F0042AD8B0052AD8B0062A04C0D5
:1028D000E5FF05C0F4FF06C0F6FF07C0E9FF08C02A
:1028E000F3FF095099EC37F00050020F036E000E11
:1028F0000120046E000E0220056E03C0E9FF04C033
:10290000F3FF055078EC37F0066E0650D8B471D05E
:10291000060E0026000E0122000E022200C0E9FF72
:1029200001C0F3FF025050EC37F0066EF3CF07F012
:102930000750E56E0650E56EEFEC26F0066E020ECF
:10294000E126D8B0E22A00C0E9FF01C0F3FF02503F
:1029500050EC37F0076EF3CF08F0D8900636096ACE
:102960000A6AE60E06266D0E0922000E0A2206C02D
:10297000F6FF09C0F7FF0AC0F8FF0900F5CF06F01F
:102980000900F5CF09F0061C0A6E091C0B6E0A50EF
:1029900007160B50081607C0E5FF08C0F4FF00C07B
:1029A000E9FF01C0F3FF0250B3EC37F003C0E9FFC9
:1029B00004C0F3FF055078EC37F0006E000600C04D
:1029C000E5FF03C0E9FF04C0F3FF0550BFEC37F09B
:1029D000065002019913095002019A130201AD51E8
:1029E00002E182EC25F00201AD5101E1F28EE86ACC
:1029F00005D00201AD5101E1F28EE86AE4CF0FF09B
:102A0000E4CF0EF0E4CF0DF0E4CF0CF0E4CF0BF008
:102A1000E4CF0AF0E4CF09F0E4CF08F0E4CF07F008
:102A2000E4CF06F0E4CF05F0E4CF04F0E4CF03F008
:102A3000E4CF02F0E4CF01F0E4CF00F0E4CFD9FF1F
:102A4000E4CFDAFF1200DACFE5FFD9CFE5FFE2CF1E
:102A5000DAFFE1CFD9FF00C0E5FF01C0E5FF02C00A
:102A6000E5FF03C0E5FF04C0E5FF05C0E5FF06C0C4
:102A7000E5FF07C0E5FF08C0E5FF09C0E5FF0AC0A4
:102A8000E5FF0BC0E5FF0CC0E5FF0DC0E5FF0EC084
:102A9000E5FF030EDBCF00F0040EDBCF01F0050EE7
:102AA000DBCF02F0F29E0050020F036E000E0120F9
:102AB000046E000E0220056E03C0E9FF04C0F3FFA0
:102AC000055078EC37F0036E03500401041903E05D
:102AD000F28E070E1AD104010451100DF3CF03F04A
:102AE000046A000E0326020E0422090E0326D8B043
:102AF000042A03C0E9FF04C0EAFFEFCF05F000504D
:102B0000040F066E000E0120076E000E0220086EF4
:102B100006C0E9FF07C0F3FF085078EC37F0066EF7
:102B20000550061801E142D0D8900534076E086AB6
:102B3000096AE60E07266D0E0822000E092207C05C
:102B4000F6FF08C0F7FF09C0F8FF0900F5CF07F04E
:102B50000900F5CF08F0071E081E0750020199175B
:102B6000085002019A17D8900634076E086A096A5D
:102B7000E60E07266D0E0822000E092207C0F6FF9A
:102B800008C0F7FF09C0F8FF0900F5CF07F00900FA
:102B9000F5CF08F0075002019913085002019A136B
:102BA00003C0E9FF04C0EAFF06C0EFFF0050050FB5
:102BB000036E000E0120046E000E0220066E03C09C
:102BC000E9FF04C0F3FF065078EC37F0076E0750BA
:102BD000D8B46ED00050060F076E000E0120086EAC
:102BE000000E0220096E07C0E9FF08C0F3FF09507C
:102BF00050EC37F00A6EF3CF0BF00B50E56E0A5035
:102C0000E56EEFEC26F0056E020EE126D8B0E22A62
:102C100007C0E9FF08C0F3FF095050EC37F00A6E17
:102C2000F3CF0BF0D89005360C6A0D6AE60E052638
:102C30006D0E0C22000E0D2205C0F6FF0CC0F7FF32
:102C40000DC0F8FF0900F5CF05F00900F5CF0CF035
:102C5000051C0D6E0C1C0E6E0D500A160E500B1638
:102C60000AC0E5FF0BC0F4FF07C0E9FF08C0F3FF8F
:102C70000950B3EC37F003C0E9FF04C0F3FF06507E
:102C800078EC37F0076E070607C0E5FF03C0E9FFE1
:102C900004C0F3FF0650BFEC37F005500201991352
:102CA0000C5002019A1382EC25F0F28EE86A2DD0C6
:102CB0000050010F036E000E0120046E000E022072
:102CC000056E090EE56E03C0E9FF04C0F3FF055071
:102CD000BFEC37F0030E0026000E0122000E022288
:102CE00000C0E9FF01C0F3FF025078EC37F0006E3E
:102CF000016AA40E0026030E012200C0E9FF01C0F4
:102D0000EAFFFE0EEF6EF28EE86AE4CF0EF0E4CF3B
:102D10000DF0E4CF0CF0E4CF0BF0E4CF0AF0E4CFF9
:102D200009F0E4CF08F0E4CF07F0E4CF06F0E4CFF9
:102D300005F0E4CF04F0E4CF03F0E4CF02F0E4CFF9
:102D400001F0E4CF00F0E4CFD9FFE4CFDAFF1200C6
:102D5000DACFE5FFD9CFE5FFE2CFDAFFE1CFD9FF48
:102D600000C0E5FF01C0E5FF02C0E5FF03C0E5FFCD
:102D700004C0E5FF05C0E5FF06C0E5FF07C0E5FFAD
:102D800008C0E5FF09C0E5FF0AC0E5FF0BC0E5FF8D
:102D90000CC0E5FF0DC0E5FF030EDBCF00F0040E15
:102DA000DBCF01F004010451100DF3CF02F0036AF0
:102DB000000E0226020E03220350036E0250026E22
:102DC000800E046E0201AD5102E0020E20D104011A
:102DD0000451D8B41BD100500110D8B415D1F29EC3
:102DE000FEC205F0FFC206F0076A086A096A0A6AAD
:102DF00000500524006E01500620016E0950072086
:102E0000056E0A500820066E000E065C08E1000EF2
:102E1000055C05E1FA0E015C02E1000E005C20E3B6
:102E20000250070F076E000E0320086E000E0420EC
:102E3000096E00500A6E060E01240B6EFF0E05206F
:102E40000C6EFF0E06200D6E0AC0E5FF0BC0F4FFEE
:102E500007C0E9FF08C0F3FF0950B3EC37F014D006
:102E60000250070F076E000E0320086E000E0420AC
:102E7000096E00C0E5FF01C0F4FF07C0E9FF08C00C
:102E8000F3FF0950B3EC37F00301EC510301ED11EE
:102E90000301EE11D8B44FD0ECC300F0EDC301F044
:102EA000EEC305F00A0E0026000E0122000E0522D8
:102EB00002C0E5FF03C0F4FF04C0F6FF00C0E9FF55
:102EC00001C0F3FF055099EC37F002500D0F006E72
:102ED000000E0320016E000E0420056EECC3E5FF1A
:102EE000EDC3F4FFEEC3F6FF00C0E9FF01C0F3FF3E
:102EF000055099EC37F002C0ECF303C0EDF304C0C9
:102F0000EEF3ECC300F0EDC301F0EEC305F00A0EE2
:102F10000026000E0122000E0522000EE56E000EB6
:102F2000F46E000EF66E00C0E9FF01C0F3FF05501D
:102F300099EC37F038D002C0ECF303C0EDF304C0D5
:102F4000EEF302C0EFF303C0F0F304C0F1F302505C
:102F50000A0F006E000E0320016E000E0420056EA5
:102F6000000EE56E000EF46E000EF66E00C0E9FF76
:102F700001C0F3FF055099EC37F002500D0F006EC1
:102F8000000E0320016E000E0420056E000EE56E9B
:102F9000000EF46E000EF66E00C0E9FF01C0F3FFF4
:102FA000055099EC37F0090E0226000E0322000EA0
:102FB000042202C0E9FF03C0F3FF045078EC37F0AD
:102FC000026ED8900236006A016AE60E02266D0E85
:102FD0000022000E012202C0F6FF00C0F7FF01C070
:102FE000F8FF0900F5CF02F00900F5CF00F0021E4E
:102FF000001E025002019917005002019A1782EC3C
:1030000025F0F28EE86A03D0090E01D0080EE4CF55
:103010000DF0E4CF0CF0E4CF0BF0E4CF0AF0E4CFF6
:1030200009F0E4CF08F0E4CF07F0E4CF06F0E4CFF6
:1030300005F0E4CF04F0E4CF03F0E4CF02F0E4CFF6
:1030400001F0E4CF00F0E4CFD9FFE4CFDAFF1200C3
:10305000DACFE5FFD9CFE5FFE2CFDAFFE1CFD9FF45
:1030600000C0E5FF01C0E5FF02C0E5FF03C0E5FFCA
:1030700004C0E5FF05C0E5FF06C0E5FF07C0E5FFAA
:1030800008C0E5FF09C0E5FF0AC0E5FF030EDBCF7E
:1030900000F0040EDBCF01F0050EDBCF02F0060ED0
:1030A000DBCF03F0070EDBCF04F03C0E015C02E344
:1030B000050E32D13C0E025C02E3050E2DD1030E4B
:1030C000045C02E1E80E035C02E3050E25D1056A0B
:1030D000066A076A0750E56E0650E56E0550E56E14
:1030E0000050E56E000EE56E360EE56EEE0EE56EF6
:1030F000800EE56EDEEC1BF0006EF3CF05F0F4CF32
:1031000006F0E9CF07F0080EE126D8B0E22A086AF7
:10311000096A0A6A0A50E56E0950E56E0850E56EC4
:103120000150E56E000EE56E000EE56EEA0EE56EEE
:10313000600EE56EDEEC1BF0016EF3CF08F0F4CF0D
:1031400009F0E9CF0AF0080EE126D8B0E22A0150D2
:10315000002608500522095006220A500722016A5B
:10316000086A096A0950E56E0850E56E0150E56E7F
:103170000250E56E000EE56E000EE56E030EE56E84
:10318000E80EE56EDEEC1BF0016EF3CF02F0F4CF3B
:1031900008F0E9CF09F0080EE126D8B0E22A015084
:1031A0000026025005220850062209500722016A13
:1031B000026A0250E56E0150E56E0450E56E035060
:1031C000E56E000EE56E000EE56E030EE56EE80E90
:1031D000E56EDEEC1BF0016EF3CF02F0F4CF03F0EE
:1031E000E9CF04F0080EE126D8B0E22A000EE56E21
:1031F000000EE56E030EE56EE80EE56E0450E56E1A
:103200000350E56E0250E56E0150E56E4DEC2BF07B
:10321000016EF3CF02F0F4CF03F0E9CF04F0080E13
:10322000E126D8B0E22A01500024016E02500520A8
:10323000026E03500620036E04500720006E0150FA
:10324000021003100010D8B466D0000EE56E000E18
:10325000E56EEA0EE56E600EE56E0050E56E035019
:10326000E56E0250E56E0150E56E4DEC2BF0046EFC
:10327000F3CF05F0F4CF06F0E9CF07F0080EE12612
:10328000D8B0E22A000EE56E000EE56EEA0EE56E9D
:10329000600EE56E0050E56E0350E56E0250E56E7F
:1032A0000150E56EBBEC2AF0016EF3CF02F0F4CFD3
:1032B00003F0E9CF00F0080EE126D8B0E22A025070
:1032C000E56E0150E56EA8EC16F0020EE126D8B0CE
:1032D000E22A04C000F005C001F006C002F007C0F9
:1032E00003F0005001100210031013E0EA0EE56E27
:1032F000600EE56EA8EC16F0020EE126D8B0E22AC8
:10330000FF0E0026FF0E0122FF0E0222FF0E0322F7
:10331000E8D7E86A01D0090EE4CF0AF0E4CF09F05B
:10332000E4CF08F0E4CF07F0E4CF06F0E4CF05F0F7
:10333000E4CF04F0E4CF03F0E4CF02F0E4CF01F0F7
:10334000E4CF00F0E4CFD9FFE4CFDAFF1200DACF08
:10335000E5FFD9CFE5FFE2CFDAFFE1CFD9FF00C02B
:10336000E5FF01C0E5FF02C0E5FF03C0E5FF04C0C3
:10337000E5FF05C0E5FF06C0E5FF07C0E5FF08C0A3
:10338000E5FF09C0E5FF0AC0E5FF0BC0E5FF0CC083
:10339000E5FF0DC0E5FF0EC0E5FF0FC0E5FF10C063
:1033A000E5FF11C0E5FF12C0E5FF13C0E5FF030E06
:1033B000DBCF00F0040EDBCF01F0050EDBCF02F017
:1033C000060EDBCF03F0070EDBCF04F0080EDBCFD9
:1033D00005F00201AD5101E1F29E0050110F066EA1
:1033E000000E0120076E000E0220086E06C0E9FFE5
:1033F00007C0F3FF085050EC37F0096EF3CF0AF026
:1034000009500A10D8B497D000500C0F0B6E000E64
:1034100001200C6E000E02200D6E0BC0E9FF0CC0E7
:10342000F3FF0D50BFEC36F00E6EF3CF0FF0F4CF7C
:1034300010F00050060F116E000E0120126E000EEB
:103440000220136E11C0E9FF12C0F3FF1350BFEC4E
:1034500036F0116EF3CF12F0F4CF13F00E501118B6
:1034600006E10F50121803E11050131801E01FD0AD
:10347000030E0026000E0122000E022200C0E9FF0A
:1034800001C0F3FF0250BFEC36F0006EF3CF01F045
:10349000F4CF02F000C0E5FF01C0F4FF02C0F6FF68
:1034A0000BC0E9FF0CC0F3FF0D5099EC37F00BC0D7
:1034B000E9FF0CC0F3FF0D50BFEC36F0006EF3CF08
:1034C00001F0F4CF02F000C0E9FF01C0F3FF0250A9
:1034D00078EC37F00E6E0EC0E5FF03C0E9FF04C0C4
:1034E000F3FF0550BFEC37F0002AD8B0012AD8B05E
:1034F000022A00C0E5FF01C0F4FF02C0F6FF0BC0C6
:10350000E9FF0CC0F3FF0D5099EC37F0FF0E0926D0
:10351000D8A00A0609C0E5FF0AC0F4FF06C0E9FF0B
:1035200007C0F3FF0850B3EC37F00201AD5101E1E1
:10353000F28EE86A05D00201AD5101E1F28E030E70
:10354000E4CF13F0E4CF12F0E4CF11F0E4CF10F0A9
:10355000E4CF0FF0E4CF0EF0E4CF0DF0E4CF0CF0A9
:10356000E4CF0BF0E4CF0AF0E4CF09F0E4CF08F0A9
:10357000E4CF07F0E4CF06F0E4CF05F0E4CF04F0A9
:10358000E4CF03F0E4CF02F0E4CF01F0E4CF00F0A9
:10359000E4CFD9FFE4CFDAFF1200DACFE5FFD9CFCD
:1035A000E5FFE2CFDAFFE1CFD9FF00C0E5FF01C0C0
:1035B000E5FF02C0E5FF03C0E5FF04C0E5FF05C06D
:1035C000E5FF06C0E5FF07C0E5FF08C0E5FF09C04D
:1035D000E5FF0AC0E5FF0BC0E5FF0CC0E5FF030EE9
:1035E000DBCF00F0040EDBCF01F0050EDBCF02F0E5
:1035F000060EDBCF03F00201AD5101E1F29E005057
:10360000110F046E000E0120056E000E0220066EE2
:1036100004C0E9FF05C0F3FF065050EC37F0076E19
:10362000F3CF08F000500F0F096E000E01200A6E54
:10363000000E02200B6E09C0E9FF0AC0F3FF0B5019
:1036400050EC37F0096EF3CF0AF00A50085C02E143
:103650000950075C0FE2072AD8B0082A07C0E5FF27
:1036600008C0F4FF04C0E9FF05C0F3FF0650B3EC47
:1036700037F006D00201AD5101E1F28E010E7FD08C
:103680000050090F046E000E0120056E000E02208E
:10369000066E04C0E9FF05C0F3FF0650BFEC36F02C
:1036A000076EF3CF08F0F4CF09F00050060F0A6E52
:1036B000000E01200B6E000E02200C6E0AC0E9FF06
:1036C0000BC0F3FF0C50BFEC36F00A6EF3CF0BF0DB
:1036D000F4CF0CF007500A1806E108500B1803E16C
:1036E00009500C1801E01FD0030E0026000E012225
:1036F000000E022200C0E9FF01C0F3FF0250BFEC40
:1037000036F0006EF3CF01F0F4CF02F000C0E5FF19
:1037100001C0F4FF02C0F6FF04C0E9FF05C0F3FFDB
:10372000065099EC37F004C0E9FF05C0F3FF0650DE
:10373000BFEC36F0006EF3CF01F0F4CF02F003C01F
:10374000E5FF00C0E9FF01C0F3FF0250BFEC37F016
:10375000002AD8B0012AD8B0022A00C0E5FF01C073
:10376000F4FF02C0F6FF04C0E9FF05C0F3FF0650F6
:1037700099EC37F00201AD5101E1F28EE86AE4CF35
:103780000CF0E4CF0BF0E4CF0AF0E4CF09F0E4CF83
:1037900008F0E4CF07F0E4CF06F0E4CF05F0E4CF83
:1037A00004F0E4CF03F0E4CF02F0E4CF01F0E4CF83
:1037B00000F0E4CFD9FFE4CFDAFF1200D9CFE5FF64
:1037C000E1CFD9FF00C0E5FF01C0E5FF02C0E5FF82
:1037D00003C0E5FF04C0E5FF05C0E5FF06C0E5FF47
:1037E00007C0E5FF020EDBCF00F0030EDBCF01F0D8
:1037F000040EDBCF02F0050EDBCF03F0060EDBCFAD
:1038000004F0070EDBCF05F0080EDBCF06F0090E43
:10381000DBCF07F000500301D26F0150D36F02508D
:10382000D46F0350D56F04500301D66F0550D76F86
:103830000650D86F0750D96F0301D2510301D80346
:10384000F3CF00F0F4CF01F000500301DC6F015022
:10385000DD6F0301D2510301D603F3CF00F0F4CFA3
:1038600001F000500301DA6F0150DB6F0301D55105
:103870000301D603F3CF00F00301DD510026005011
:10388000DD6F0301D4510301D703F3CF00F003012F
:10389000DD5100260050DD6F0301D4510301D60332
:1038A000F3CF00F0F4CF01F00301DC510026DD512D
:1038B00001220050DC6F0150DD6F0301D351030181
:1038C000D703F3CF00F0F4CF01F00301DC51002661
:1038D000DD5101220050DC6F0150DD6F0301D35137
:1038E0000301D803F3CF00F000500301E16F03019F
:1038F000D3510301D603F3CF00F0F4CF01F0005011
:103900000301DF6F0150E06F0301D2510301D903BE
:10391000F3CF00F000500301E56F0301D251030122
:10392000D703F3CF00F0F4CF01F000500301E36FB1
:103930000150E46F0301DE6B0301E26B0301DE5112
:103940000301DA25006E0301DF510301DB21016E63
:103950000301E0510301DC21026E0301E151030187
:10396000DD21036E0050DA6F0150DB6F0250DC6F17
:103970000350DD6F0301E2510301DA25006E0301FC
:10398000E3510301DB21016E0301E4510301DC215A
:10399000026E0301E5510301DD21036E03C0E9FF5F
:1039A00002C0F4FF01C0F3FF0050E4CF07F0E4CF02
:1039B00006F0E4CF05F0E4CF04F0E4CF03F0E4CF69
:1039C00002F0E4CF01F0E4CF00F0E4CFD9FF120021
:1039D000DACFE5FFD9CFE5FFE2CFDAFFE1CFD9FFBC
:1039E00000C0E5FF01C0E5FF02C0E5FF03C0E5FF41
:1039F00004C0E5FF05C0E5FF06C0E5FF07C0E5FF21
:103A000008C0E5FF09C0E5FF0AC0E5FF030EDBCFF4
:103A100000F0040EDBCF01F0050EDBCF02F0060E46
:103A2000DBCF03F00201AD5102E0020EBDD0040174
:103A3000045101E0F29EA40E0324046E056A030EF5
:103A4000052204C0E9FF05C0EAFFEFCF06F00650EB
:103A5000FF0A06E00401045101E0F28E040EA4D036
:103A600004C0E9FF05C0EAFFFE0EEF6E046A056AB6
:103A7000066A076A0550800F800F02E1030E045C9E
:103A800037E20550800F800F02E1020E045C06E36E
:103A90000401045101E0F28E010E86D0B40E06241A
:103AA000086E030E0720096E08C0E9FF09C0EAFF8F
:103AB000EFCF0AF00A50010A13E008C0E9FF09C07D
:103AC000EAFF010EEF6EB40E0624086E030E072007
:103AD000096E0950096E0850086E800E0A6E08D0F3
:103AE000080E0626D8B0072A042AD8B0052AC2D75D
:103AF0000850010F046E000E0920056E000E0A200A
:103B0000066E090EE56E04C0E9FF05C0F3FF06501E
:103B1000BFEC37F00850050F046E000E0920056E4B
:103B2000000E0A20066E000EE56E04C0E9FF05C017
:103B3000F3FF0650BFEC37F00850030F046E000E81
:103B40000920056E000E0A20066E03C0E5FF04C0C2
:103B5000E9FF05C0F3FF0650BFEC37F00850060F31
:103B6000036E000E0920046E000E0A20056E000E82
:103B7000E56E000EF46E03C0E9FF04C0F3FF0550CC
:103B8000B3EC37F008C0E5FF09C0F4FF0AC0F6FF48
:103B900000C0E9FF01C0F3FF025099EC37F00401C7
:103BA000045101E0F28EE86AE4CF0AF0E4CF09F0B4
:103BB000E4CF08F0E4CF07F0E4CF06F0E4CF05F05F
:103BC000E4CF04F0E4CF03F0E4CF02F0E4CF01F05F
:103BD000E4CF00F0E4CFD9FFE4CFDAFF1200DACF70
:103BE000E5FFD9CFE5FFE2CFDAFFE1CFD9FF00C093
:103BF000E5FF01C0E5FF02C0E5FF03C0E5FF04C02B
:103C0000E5FF05C0E5FF06C0E5FF07C0E5FF08C00A
:103C1000E5FF09C0E5FF0AC0E5FF0BC0E5FF0CC0EA
:103C2000E5FF0DC0E5FF0EC0E5FF030EDBCF00F0A2
:103C3000040EDBCF01F0050EDBCF02F00201AD5127
:103C400001E1F29E0050020F036E000E0120046E8F
:103C5000000E0220056E03C0E9FF04C0F3FF05500B
:103C600078EC37F0066E0650D8B474D00050030FCD
:103C7000066E000E0120076E000E0220086E06C0C0
:103C8000E9FF07C0F3FF085050EC37F0096EF3CF9F
:103C90000AF00A50E56E0950E56EEFEC26F0096E69
:103CA000020EE126D8B0E22A06C0E9FF07C0F3FF02
:103CB000085050EC37F00A6EF3CF0BF0D89009366D
:103CC0000C6A0D6AE60E09266D0E0C22000E0D22FE
:103CD00009C0F6FF0CC0F7FF0DC0F8FF0900F5CFD3
:103CE00009F00900F5CF0CF0091C0D6E0C1C0E6ECE
:103CF0000D500A160E500B160AC0E5FF0BC0F4FF5C
:103D000006C0E9FF07C0F3FF0850B3EC37F003C06B
:103D1000E9FF04C0F3FF055078EC37F0066E0606A5
:103D200006C0E5FF03C0E9FF04C0F3FF0550BFEC88
:103D300037F00950020199130C5002019A13020145
:103D4000AD5102E182EC25F00201AD5101E1F28EAC
:103D5000E86A25D0002AD8B0012AD8B0022A00C0CB
:103D6000E9FF01C0F3FF025078EC37F0036EFF0E5D
:103D7000035C10E2032A03C0E5FF00C0E9FF01C0B5
:103D8000F3FF0250BFEC37F00201AD5101E1F28EBA
:103D9000E86A05D00201AD5101E1F28E030EE4CFD5
:103DA0000EF0E4CF0DF0E4CF0CF0E4CF0BF0E4CF55
:103DB0000AF0E4CF09F0E4CF08F0E4CF07F0E4CF55
:103DC00006F0E4CF05F0E4CF04F0E4CF03F0E4CF55
:103DD00002F0E4CF01F0E4CF00F0E4CFD9FFE4CF6C
:103DE000DAFF1200DACFE5FFD9CFE5FFE2CFDAFF45
:103DF000E1CFD9FF00C0E5FF01C0E5FF02C0E5FF4C
:103E000003C0E5FF04C0E5FF05C0E5FF030EDBCFFF
:103E100000F0040EDBCF01F0050EDBCF02F0036AE9
:103E2000046A0450E56E0350E56E0150E56E0050E3
:103E3000E56E010EE56EE80EE56E480EE56E000ECD
:103E4000E56E4DEC2BF0006EF3CF01F0F4CF03F0F4
:103E5000E9CF04F0080EE126D8B0E22AF00E0016F1
:103E6000003A013A0114011A00260350E838F00B19
:103E70000112F00E0316033A043A0414041A03263E
:103E8000FF0E0026FF0E0122FF0E0322FF0E04226A
:103E9000AC6AAB6A0050AF6E949C948EAC84AC8AD2
:103EA000AB8EAB889D8A030E016EF50E006E800E00
:103EB000036E0250E56E0350E56E0150E56E005052
:103EC000E56EE8EC1CF0006E040EE126D8B0E22AA4
:103ED000005001E0FFD7020E016EEB0E006E800E67
:103EE000026E030E046EF80E036E800E056E055012
:103EF000E56E0450E56E0350E56E000EE56E400E73
:103F0000E56E0250E56E0150E56E0050E56EACECDA
:103F100011F0006E080EE126D8B0E22A005001E050
:103F2000FFD7030E016E800E006E800E026E030E30
:103F3000046EFB0E036E800E056E0550E56E045098
:103F4000E56E0350E56E000EE56E400EE56E025024
:103F5000E56E0150E56E0050E56EACEC11F0006EC0
:103F6000080EE126D8B0E22A005001E0FFD7040E87
:103F7000016E000E006E800E026E0250E56E015062
:103F8000E56E0050E56E000EE56EBEEC20F0006EB2
:103F9000040EE126D8B0E22A005001E0FFD7E4CFBA
:103FA00005F0E4CF04F0E4CF03F0E4CF02F0E4CF77
:103FB00001F0E4CF00F0E4CFD9FFE4CFDAFF120044
:103FC000D38EDAEC36F0030EE56EE10EE56E000EF0
:103FD000E56EF2EC1EF0030EE126D8B0E22A030EE5
:103FE000016EE90E006E800E026E0250E56E015009
:103FF000E56E0050E56E000EE56EBEEC20F0006E42
:10400000040EE126D8B0E22A005001E0FFD7060EE8
:10401000E56E000EE56E5A0EE56E000EE56E410E81
:10402000E56E360EE56E000EE56E570EE56EB40ECB
:10403000E56EC1EC0FF0006E090EE126D8B0E22A61
:10404000005001E0FFD7040EE56E000EE56E530E42
:10405000E56E000EE56E410EE56E420EE56E000E59
:10406000E56E6B0EE56E6C0EE56EC1EC0FF0006E4A
:10407000090EE126D8B0E22A005001E0FFD7050E74
:10408000E56E000EE56E530EE56E000EE56E410E18
:10409000E56E520EE56E000EE56E680EE56E0A0ED8
:1040A000E56EC1EC0FF0006E090EE126D8B0E22AF1
:1040B000005001E0FFD7020EE56E000EE56E800EA7
:1040C000E56E000EE56E410EE56E620EE56E000EC9
:1040D000E56E6F0EE56E120EE56EC1EC0FF0006E30
:1040E000090EE126D8B0E22A005001E0FFD7010E08
:1040F000E56E000EE56E800EE56E000EE56E410E7B
:10410000E56E700EE56E000EE56E530EE56E060E62
:10411000E56EC1EC0FF0006E090EE126D8B0E22A80
:10412000005001E0FFD7D1EC2CF0006E005001E010
:10413000FFD7FFD7120053797374656D2054696DF2
:104140006500546172656661205465737465203141
:104150000000546172656661205465737465203295
:1041600000005461726566612053657269616C007C
:10417000546172656661204C43440000DACFE5FF6C
:10418000D9CFE5FFE2CFDAFFE1CFD9FF00C0E5FFED
:1041900001C0E5FF02C0E5FF03C0E5FF04C0E5FF85
:1041A00005C0E5FF06C0E5FF07C0E5FF08C0E5FF65
:1041B00009C0E5FF0AC0E5FF030EDBCF00F0040EE7
:1041C000DBCF01F0050EDBCF02F0060EDBCF03F0F4
:1041D0000201AD5102E0020E90D00401045101E051
:1041E000F29E046A056A066A076A0550800F800F0E
:1041F00002E1030E045C37E20550800F800F02E1FC
:10420000020E045C06E30401045101E0F28E010E8B
:1042100074D0C40E0624086E030E0720096E08C071
:10422000E9FF09C0EAFFEFCF0AF00A50010A13E0E4
:1042300008C0E9FF09C0EAFF010EEF6EC40E0624B4
:10424000086E030E0720096E0950096E0850086EAB
:10425000800E0A6E08D0050E0626D8B0072A042A5A
:10426000D8B0052AC2D70850010F046E000E0920ED
:10427000056E000E0A20066E00C0E5FF04C0E9FFCF
:1042800005C0F3FF0650BFEC37F00850020F006E78
:10429000000E0920046E000E0A20056E000EE56E69
:1042A00000C0E9FF04C0F3FF0550BFEC37F0085031
:1042B000030F006E000E0920046E000E0A20056E2A
:1042C000000EE56E000EF46E00C0E9FF04C0F3FFBF
:1042D0000550B3EC37F008C0E5FF09C0F4FF0AC091
:1042E000F6FF01C0E9FF02C0F3FF035099EC37F07D
:1042F0000401045101E0F28EE86AE4CF0AF0E4CF51
:1043000009F0E4CF08F0E4CF07F0E4CF06F0E4CF03
:1043100005F0E4CF04F0E4CF03F0E4CF02F0E4CF03
:1043200001F0E4CF00F0E4CFD9FFE4CFDAFF1200D0
:10433000DACFE5FFD9CFE5FFE2CFDAFFE1CFD9FF52
:1043400000C0E5FF01C0E5FFD8CFE4FFE8CFE4FF00
:10435000E0CFE4FFDACFE4FFE2CFDAFFD9CFE4FF2A
:10436000E9CFE4FFEACFE4FFF5CFE4FFF6CFE4FFC7
:10437000F7CFE4FFF8CFE4FFF3CFE4FFF4CFE4FF9F
:10438000FACFE4FFFBCFE4FF0201AD2B9E940201C4
:10439000FE2B02E30201FF2B0201FE5104E10201A8
:1043A000FF51FA0A01E004D00201FE6B0201FF6B2B
:1043B000C9EC0DF00201AD070201AD51D8A45FD0E8
:1043C0002CEC35F00401036F0401045104010319BE
:1043D00001E155D0FCCFE9FFFC5008E0FDCFE4FF40
:1043E000FECFE4FFFFCFE4FF0600F6D7E9CFE4FFFE
:1043F000E452E1CFAEF2E2CFAFF204010451100D6E
:10440000F3CF00F0016A000E0026020E0122030E17
:104410000026D8B0012A00C0E9FF01C0EAFFAEC201
:10442000EEFFAFC2EFFF03C404F404010451100D0A
:10443000F3CF00F0016A000E0026020E0122030EE7
:104440000026D8B0012A00C0E9FF01C0EAFFEECF84
:10445000AEF2EFCFAFF2AEC2E1FFAFC2E2FFE5CF07
:10446000E9FFE5CFE9FFFC6AE950FC5C08E20500E2
:10447000E550FF6EE550FE6EE550FD6EF5D7E5CFD9
:10448000FBFFE5CFFAFFE5CFF4FFE5CFF3FFE5CF84
:10449000F8FFE5CFF7FFE5CFF6FFE5CFF5FFE5CF76
:1044A000EAFFE5CFE9FFE5CFD9FFE5CFDAFFDACFC5
:1044B000E2FFE5CFE0FFE5CFE8FFE5CFD8FF100052
:1044C000E4CF01F0E4CF00F0E4CFD9FFE4CFDAFF8E
:1044D0001200DACFE5FFD9CFE5FFE2CFDAFFE1CF77
:1044E000D9FF00C0E5FF01C0E5FF02C0E5FF03C042
:1044F000E5FF04C0E5FF05C0E5FF06C0E5FF07C016
:10450000E5FF08C0E5FF030EDBCF00F0040EDBCFB4
:1045100001F0050EDBCF02F00201AD5102E0020E08
:1045200090D0F29E00C0E9FF01C0F3FF0250BFEC43
:1045300036F0036EF3CF04F0F4CF05F0000EE56E15
:1045400003C0E9FF04C0F3FF0550BFEC37F0035090
:10455000010F066E000E0420076E000E0520086E87
:10456000000EE56E06C0E9FF07C0F3FF0850BFEC80
:1045700037F00350020F066E000E0420076E000E87
:104580000520086E000EE56E06C0E9FF07C0F3FFC8
:104590000850BFEC37F00350030F066E000E0420E6
:1045A000076E000E0520086E000EE56E06C0E9FFDE
:1045B00007C0F3FF0850BFEC37F00350040F066E3E
:1045C000000E0420076E000E0520086E000EE56E3A
:1045D00006C0E9FF07C0F3FF0850BFEC37F00350F7
:1045E000050F066E000E0420076E000E0520086EF3
:1045F000000EE56E06C0E9FF07C0F3FF0850BFECF0
:1046000037F0060E0326000E0422000E0522000ECF
:10461000E56E000EF46E03C0E9FF04C0F3FF055021
:10462000B3EC37F0000EE56E000EF46E000EF66E81
:1046300000C0E9FF01C0F3FF025099EC37F0F28EA1
:10464000080EE4CF08F0E4CF07F0E4CF06F0E4CFA3
:1046500005F0E4CF04F0E4CF03F0E4CF02F0E4CFC0
:1046600001F0E4CF00F0E4CFD9FFE4CFDAFF12008D
:10467000DACFE5FFD9CFE5FFE2CFDAFFE1CFD9FF0F
:1046800000C0E5FF01C0E5FF02C0E5FF03C0E5FF94
:1046900004C0E5FF05C0E5FF06C0E5FF07C0E5FF74
:1046A00008C0E5FF09C0E5FF030EDBCF00F0040EF4
:1046B000DBCF01F0050EDBCF02F0060EDBCF03F0FF
:1046C000070EDBCF04F0080EDBCF05F00201AD5181
:1046D00001E1F29E00C0E9FF01C0F3FF025078EC57
:1046E00037F0066E062A06C0E5FF00C0E9FF01C0EC
:1046F000F3FF0250BFEC37F006503C0A01E067D0F0
:10470000000EE56E00C0E9FF01C0F3FF0250BFECF0
:1047100037F00050010F066E000E0120076E000EEC
:104720000220086E06C0E9FF07C0F3FF085078ECCE
:1047300037F0096E092A09C0E5FF06C0E9FF07C086
:10474000F3FF0850BFEC37F009503C0A01E03FD0BE
:10475000000EE56E06C0E9FF07C0F3FF0850BFEC8E
:1047600037F0020E0026000E0122000E022200C0C9
:10477000E9FF01C0F3FF025078EC37F0066E062A1D
:1047800006C0E5FF00C0E9FF01C0F3FF0250BFEC27
:1047900037F00650180A1BE1000EE56E00C0E9FF75
:1047A00001C0F3FF0250BFEC37F003C0E9FF04C0C3
:1047B000F3FF055078EC37F0006E002A00C0E5FFEB
:1047C00003C0E9FF04C0F3FF0550BFEC37F002015E
:1047D000AD5101E1F28EE4CF09F0E4CF08F0E4CF6F
:1047E00007F0E4CF06F0E4CF05F0E4CF04F0E4CF27
:1047F00003F0E4CF02F0E4CF01F0E4CF00F0E4CF27
:10480000D9FFE4CFDAFF1200DACFE5FFD9CFE5FF19
:10481000E2CFDAFFE1CFD9FF00C0E5FF01C0E5FF3D
:10482000D8CFE4FFE8CFE4FFE0CFE4FFDACFE4FF46
:10483000E2CFDAFFD9CFE4FFE9CFE4FFEACFE4FF2C
:10484000F5CFE4FFF6CFE4FFF7CFE4FFF8CFE4FFC6
:10485000F3CFE4FFF4CFE4FFFACFE4FFFBCFE4FFB4
:104860000201AD2BD7EC30F00201AD070201AD51D2
:10487000D8A45FD02CEC35F00401036F040104517F
:104880000401031901E155D0FCCFE9FFFC5008E019
:10489000FDCFE4FFFECFE4FFFFCFE4FF0600F6D735
:1048A000E9CFE4FFE452E1CFAEF2E2CFAFF2040190
:1048B0000451100DF3CF00F0016A000E0026020E25
:1048C0000122030E0026D8B0012A00C0E9FF01C072
:1048D000EAFFAEC2EEFFAFC2EFFF03C404F404016F
:1048E0000451100DF3CF00F0016A000E0026020EF5
:1048F0000122030E0026D8B0012A00C0E9FF01C042
:10490000EAFFEECFAEF2EFCFAFF2AEC2E1FFAFC241
:10491000E2FFE5CFE9FFE5CFE9FFFC6AE950FC5C87
:1049200008E20500E550FF6EE550FE6EE550FD6EB5
:10493000F5D7E5CFFBFFE5CFFAFFE5CFF4FFE5CFF5
:10494000F3FFE5CFF8FFE5CFF7FFE5CFF6FFE5CFC3
:10495000F5FFE5CFEAFFE5CFE9FFE5CFD9FFE5CFEA
:10496000DAFFDACFE2FFE5CFE0FFE5CFE8FFE5CF02
:10497000D8FF1000E4CF01F0E4CF00F0E4CFD9FF7E
:10498000E4CFDAFF1200DACFE5FFD9CFE5FFE2CFBF
:10499000DAFFE1CFD9FF00C0E5FF01C0E5FFD8CFC6
:1049A000E4FFE8CFE4FFE0CFE4FFDACFE4FFE2CFBB
:1049B000DAFFD9CFE4FFE9CFE4FFEACFE4FFF5CF98
:1049C000E4FFF6CFE4FFF7CFE4FFF8CFE4FFF3CF47
:1049D000E4FFF4CFE4FFFACFE4FFFBCFE4FF0201F2
:1049E000AD2B82EC34F00201AD070201AD51D8A429
:1049F0005FD02CEC35F00401036F04010451040175
:104A0000031901E155D0FCCFE9FFFC5008E0FDCFD0
:104A1000E4FFFECFE4FFFFCFE4FF0600F6D7E9CFC7
:104A2000E4FFE452E1CFAEF2E2CFAFF20401045171
:104A3000100DF3CF00F0016A000E0026020E0122D5
:104A4000030E0026D8B0012A00C0E9FF01C0EAFF2A
:104A5000AEC2EEFFAFC2EFFF03C404F40401045181
:104A6000100DF3CF00F0016A000E0026020E0122A5
:104A7000030E0026D8B0012A00C0E9FF01C0EAFFFA
:104A8000EECFAEF2EFCFAFF2AEC2E1FFAFC2E2FFC8
:104A9000E5CFE9FFE5CFE9FFFC6AE950FC5C08E2FD
:104AA0000500E550FF6EE550FE6EE550FD6EF5D752
:104AB000E5CFFBFFE5CFFAFFE5CFF4FFE5CFF3FF4E
:104AC000E5CFF8FFE5CFF7FFE5CFF6FFE5CFF5FF40
:104AD000E5CFEAFFE5CFE9FFE5CFD9FFE5CFDAFF84
:104AE000DACFE2FFE5CFE0FFE5CFE8FFE5CFD8FF83
:104AF0001000E4CF01F0E4CF00F0E4CFD9FFE4CF21
:104B0000DAFF1200DACFE5FFD9CFE5FFE2CFDAFF17
:104B1000E1CFD9FF00C0E5FF01C0E5FFD8CFE4FF3A
:104B2000E8CFE4FFE0CFE4FFDACFE4FFE2CFDAFF43
:104B3000D9CFE4FFE9CFE4FFEACFE4FFF5CFE4FF0C
:104B4000F6CFE4FFF7CFE4FFF8CFE4FFF3CFE4FFC5
:104B5000F4CFE4FFFACFE4FFFBCFE4FF0201AD2B7B
:104B60000201AD070201AD51D8A45FD02CEC35F0A5
:104B70000401036F040104510401031901E155D03C
:104B8000FCCFE9FFFC5008E0FDCFE4FFFECFE4FFDF
:104B9000FFCFE4FF0600F6D7E9CFE4FFE452E1CF10
:104BA000AEF2E2CFAFF204010451100DF3CF00F0EA
:104BB000016A000E0026020E0122030E0026D8B064
:104BC000012A00C0E9FF01C0EAFFAEC2EEFFAFC29A
:104BD000EFFF03C404F404010451100DF3CF00F0FF
:104BE000016A000E0026020E0122030E0026D8B034
:104BF000012A00C0E9FF01C0EAFFEECFAEF2EFCF1D
:104C0000AFF2AEC2E1FFAFC2E2FFE5CFE9FFE5CF11
:104C1000E9FFFC6AE950FC5C08E20500E550FF6E24
:104C2000E550FE6EE550FD6EF5D7E5CFFBFFE5CF15
:104C3000FAFFE5CFF4FFE5CFF3FFE5CFF8FFE5CFCF
:104C4000F7FFE5CFF6FFE5CFF5FFE5CFEAFFE5CFCC
:104C5000E9FFE5CFD9FFE5CFDAFFDACFE2FFE5CF15
:104C6000E0FFE5CFE8FFE5CFD8FF1000E4CF01F08B
:104C7000E4CF00F0E4CFD9FFE4CFDAFF1200DACFBF
:104C8000E5FFD9CFE5FFE2CFDAFFE1CFD9FF00C0E2
:104C9000E5FF01C0E5FF02C0E5FF03C0E5FF04C07A
:104CA000E5FF05C0E5FF06C0E5FF030EDBCF00F022
:104CB000040EDBCF01F0050EDBCF02F00201AD5197
:104CC00001E1F29E00C0E9FF01C0F3FF025078EC61
:104CD00037F0036E032A03C0E5FF00C0E9FF01C0FF
:104CE000F3FF0250BFEC37F003501E0A01E060D022
:104CF000000EE56E00C0E9FF01C0F3FF0250BFECFB
:104D000037F00050010F036E000E0120046E000EFC
:104D10000220056E03C0E9FF04C0F3FF055078ECE4
:104D200037F0066E062A06C0E5FF03C0E9FF04C09F
:104D3000F3FF0550BFEC37F006500C0A39E1000EC6
:104D4000E56E03C0E9FF04C0F3FF0550BFEC37F088
:104D5000020E0026000E0122000E022200C0E9FF12
:104D600001C0F3FF025050EC37F0036EF3CF04F0B4
:104D7000032AD8B0042A03C0E5FF04C0F4FF00C032
:104D8000E9FF01C0F3FF0250B3EC37F003500F0A04
:104D900003E10450270A01E00BD0000EE56E000E7F
:104DA000F46E00C0E9FF01C0F3FF0250B3EC37F02E
:104DB0000201AD5101E1F28EE4CF06F0E4CF05F03F
:104DC000E4CF04F0E4CF03F0E4CF02F0E4CF01F04D
:104DD000E4CF00F0E4CFD9FFE4CFDAFF1200DACF5E
:104DE000E5FFD9CFE5FFE2CFDAFFE1CFD9FF00C081
:104DF000E5FF01C0E5FF02C0E5FF030EDBCF00F0D9
:104E0000040EDBCF01F0010E015C02E1000E005C3C
:104E1000D8A042D0100E015C02E1000E005C1EE33F
:104E2000400E015C02E1000E005C0CE3800E015CB0
:104E300002E1000E005C03E30F0E026E6DD00E0E59
:104E4000026E6AD0200E015C02E1000E005C03E3FA
:104E50000D0E026E61D00C0E026E5ED0040E015C6F
:104E600002E1000E005C0CE3080E015C02E1000EA2
:104E7000005C03E30B0E026E4FD00A0E026E4CD0A4
:104E8000020E015C02E1000E005C03E3090E026EFB
:104E900043D0080E026E40D0000E015C02E1100EFD
:104EA000005C1EE3000E015C02E1400E005C0CE3BE
:104EB000000E015C02E1800E005C03E3070E026E4F
:104EC0002BD0060E026E28D0000E015C02E1200EEF
:104ED000005C03E3050E026E1FD0040E026E1CD0B0
:104EE000000E015C02E1040E005C0CE3000E015CAC
:104EF00002E1080E005C03E3030E026E0DD0020E09
:104F0000026E0AD0000E015C02E1020E005C03E3B7
:104F1000010E026E01D0026A0250E4CF02F0E4CF2B
:104F200001F0E4CF00F0E4CFD9FFE4CFDAFF1200C4
:104F3000DACFE5FFD9CFE5FFE2CFDAFFE1CFD9FF46
:104F400000C0E5FF01C0E5FF02C0E5FF03C0E5FFCB
:104F500004C0E5FF05C0E5FF06C0E5FF07C0E5FFAB
:104F600008C0E5FF030EDBCF00F0040EDBCF01F03D
:104F7000050EDBCF02F0030E0026000E0122000E0C
:104F8000022200C0E9FF01C0F3FF0250BFEC36F07F
:104F9000006EF3CF01F0F4CF02F00201AD5101E158
:104FA000F29E0050110F036E000E0120046E000EE1
:104FB0000220056E000EE56E000EF46E03C0E9FFE0
:104FC00004C0F3FF0550B3EC37F00050090F036E37
:104FD000000E0120046E000E0220056E0050030F2B
:104FE000066E000E0120076E000E0220086E06C03D
:104FF000E9FF07C0F3FF0850BFEC36F0066EF3CFB1
:1050000007F0F4CF08F006C0E5FF07C0F4FF08C0C2
:10501000F6FF03C0E9FF04C0F3FF055099EC37F039
:105020000C0E0026000E0122000E022206C0E5FF33
:1050300007C0F4FF08C0F6FF00C0E9FF01C0F3FF9E
:10504000025099EC37F00201AD5101E1F28E020EEF
:10505000E4CF08F0E4CF07F0E4CF06F0E4CF05F0AA
:10506000E4CF04F0E4CF03F0E4CF02F0E4CF01F0AA
:10507000E4CF00F0E4CFD9FFE4CFDAFF1200DACFBB
:10508000E5FFD9CFE5FFE2CFDAFFE1CFD9FF00C0DE
:10509000E5FF01C0E5FF02C0E5FF03C0E5FF04C076
:1050A000E5FF05C0E5FF06C0E5FF030EDBCF00F01E
:1050B000040EDBCF01F0050EDBCF02F00201AD5193
:1050C00001E1F29E00C0E9FF01C0F3FF025078EC5D
:1050D00037F0036E032A03C0E5FF00C0E9FF01C0FB
:1050E000F3FF0250BFEC37F003503C0A01E054D00C
:1050F000000EE56E00C0E9FF01C0F3FF0250BFECF7
:1051000037F00050010F036E000E0120046E000EF8
:105110000220056E03C0E9FF04C0F3FF055078ECE0
:1051200037F0066E062A06C0E5FF03C0E9FF04C09B
:10513000F3FF0550BFEC37F006503C0A2DE1000E9E
:10514000E56E03C0E9FF04C0F3FF0550BFEC37F084
:10515000020E0026000E0122000E022200C0E9FF0E
:1051600001C0F3FF025078EC37F0036E032A03C04E
:10517000E5FF00C0E9FF01C0F3FF0250BFEC37F0CC
:105180000350180A09E1000EE56E00C0E9FF01C0F6
:10519000F3FF0250BFEC37F00201AD5101E1F28E96
:1051A000E4CF06F0E4CF05F0E4CF04F0E4CF03F061
:1051B000E4CF02F0E4CF01F0E4CF00F0E4CFD9FF78
:1051C000E4CFDAFF1200DACFE5FFD9CFE5FFE2CF77
:1051D000DAFFE1CFD9FF00C0E5FF01C0E5FF02C063
:1051E000E5FF03C0E5FF04C0E5FF05C0E5FF06C01D
:1051F000E5FF030EDBCF00F0040EDBCF01F0050E60
:10520000DBCF02F0060EDBCF03F0070EDBCF04F09E
:105210000401045101E0F29E000E045C02E1380E2C
:10522000035C06E20401045101E0F28E020E58D044
:10523000035002019325056E045002019421066E6D
:10524000000E065C02E1810E055C06E304010451D8
:1052500001E0F28E010E44D002019751380F056E25
:10526000000E02019821066E05500201836F065060
:105270000201846F020197510201856F020198516A
:105280000201866F0201896B080E0301A46F0450AE
:10529000E56E0350E56E0250E56E0150E56E00507C
:1052A000E56E63EC08F0050EE126D8B0E22A035063
:1052B000020193270450020194230350020197270F
:1052C000045002019823E80E0201876FFD0E0201CF
:1052D000886F020199810401045101E0F28EE86AAD
:1052E000E4CF06F0E4CF05F0E4CF04F0E4CF03F020
:1052F000E4CF02F0E4CF01F0E4CF00F0E4CFD9FF37
:10530000E4CFDAFF1200DACFE5FFD9CFE5FFE2CF35
:10531000DAFFE1CFD9FF00C0E5FF01C0E5FF02C021
:10532000E5FF2BEC2EF0E40E0301936F030E016EEC
:10533000930E006E800E026E0250E56E0150E56E17
:105340000050E56E42EC32F0030EE126D8B0E22ABE
:10535000010EE56E020EE56EC4EC33F0020EE1269E
:10536000D8B0E22A030E016E930E006E800E026E1C
:105370000250E56E0150E56E0050E56E42EC32F0F1
:10538000030EE126D8B0E22AFF0E926E94EC32F0C2
:105390008B8A949A8B9494941BEC30F01BEC30F035
:1053A000006EF3CF01F0000E015C02E11E0E005C06
:1053B00003E38B848B9A02D08B948B8A070EE56E65
:1053C000020EE56EC4EC33F0020EE126D8B0E22AFC
:1053D0000150E56E0050E56EC3EC2DF0020EE126A3
:1053E000D8B0E22ADF0E0301936F430E0301946FDE
:1053F0000301956B030E016E930E006E800E026E1C
:105400000250E56E0150E56E0050E56E42EC32F060
:10541000030EE126D8B0E22A030EE56EE80EE56E33
:10542000A8EC16F0020EE126D8B0E22AB7D7E4CFF6
:1054300002F0E4CF01F0E4CF00F0E4CFD9FFE4CFF5
:10544000DAFF1200DACFE5FFD9CFE5FFE2CFDAFFCE
:10545000E1CFD9FF00C0E5FF01C0E5FF02C0E5FFD5
:1054600003C0E5FF04C0E5FF05C0E5FF06C0E5FF9A
:1054700007C0E5FF08C0E5FF030EDBCF00F0040E18
:10548000DBCF01F0050EDBCF02F00201AD5102E0EF
:10549000020E5AD0F29E00C0E9FF01C0F3FF025095
:1054A000BFEC36F0036EF3CF04F0F4CF05F0000E3E
:1054B000E56E03C0E9FF04C0F3FF0550BFEC37F011
:1054C0000350010F066E000E0420076E000E05202B
:1054D000086E000EE56E06C0E9FF07C0F3FF085036
:1054E000BFEC37F00350020F066E000E0420076E6B
:1054F000000E0520086E000EE56E06C0E9FF07C02D
:10550000F3FF0850BFEC37F0030E0326000E042211
:10551000000E0522000EE56E000EF46E03C0E9FFDA
:1055200004C0F3FF0550B3EC37F0000EE56E000E3B
:10553000F46E000EF66E00C0E9FF01C0F3FF0250EA
:1055400099EC37F0F28E080EE4CF08F0E4CF07F0C4
:10555000E4CF06F0E4CF05F0E4CF04F0E4CF03F0AD
:10556000E4CF02F0E4CF01F0E4CF00F0E4CFD9FFC4
:10557000E4CFDAFF1200D9CFE5FFE1CFD9FF00C0B9
:10558000E5FF01C0E5FF02C0E5FF03C0E5FF04C081
:10559000E5FF05C0E5FF06C0E5FF07C0E5FF08C061
:1055A000E5FF09C0E5FF0AC0E5FF020EDBCF00F012
:1055B000030EDBCF01F0040EDBCF02F0050EDBCFD4
:1055C00003F0060EDBCF04F0070EDBCF05F0080E6C
:1055D000DBCF06F0090EDBCF07F0086A096A074443
:1055E000010B0A6E0AB01BD004500426053606369D
:1055F00007360750035C08E10650025C05E10550E0
:10560000015C02E10450005C06E2D89007320632E9
:105610000532043204D0092A09C008F0E0D7075047
:10562000035C08E10650025C05E10550015C02E103
:105630000450005C08E30450005E0550015A065017
:10564000025A0750035AD890073206320532043204
:1056500008C009F008060950E2E103C0E9FF02C0F2
:10566000F4FF01C0F3FF0050E4CF0AF0E4CF09F0EB
:10567000E4CF08F0E4CF07F0E4CF06F0E4CF05F084
:10568000E4CF04F0E4CF03F0E4CF02F0E4CF01F084
:10569000E4CF00F0E4CFD9FF1200D9CFE5FFE1CF8E
:1056A000D9FF00C0E5FF01C0E5FF02C0E5FF03C070
:1056B000E5FF04C0E5FF05C0E5FF06C0E5FF07C044
:1056C000E5FF08C0E5FF09C0E5FF0AC0E5FF0BC024
:1056D000E5FF0CC0E5FF0DC0E5FF020EDBCF00F0DB
:1056E000030EDBCF01F0040EDBCF02F0050EDBCFA3
:1056F00003F0060EDBCF04F0070EDBCF05F0080E3B
:10570000DBCF06F0090EDBCF07F0086A096A0A6AE8
:105710000B6A200E0C6E0344010B0D6E010E0D166C
:105720000050002601360236033608500826093696
:105730000A360B360D50D8A4088007500B5C08E1E0
:1057400006500A5C05E10550095C02E10450085C62
:1057500009E30450085E0550095A06500A5A0750DA
:105760000B5A00800C2ED7D703C0E9FF02C0F4FF0C
:1057700001C0F3FF0050E4CF0DF0E4CF0CF0E4CF14
:105780000BF0E4CF0AF0E4CF09F0E4CF08F0E4CF67
:1057900007F0E4CF06F0E4CF05F0E4CF04F0E4CF67
:1057A00003F0E4CF02F0E4CF01F0E4CF00F0E4CF67
:1057B000D9FF1200DACFE5FFD9CFE5FFE2CFDAFF5C
:1057C000E1CFD9FF00C0E5FF01C0E5FF02C0E5FF62
:1057D00003C0E5FF04C0E5FF05C0E5FF06C0E5FF27
:1057E000006A030E026EE60E016E800E036E035019
:1057F000E56E0250E56E0150E56EBBEC2FF0030E36
:10580000E126D8B0E22A030E026ECE0E016E800EA3
:10581000036E0350E56E0250E56E0150E56EF7EC45
:105820002EF0030EE126D8B0E22A0400000EE56E49
:105830000A0EE56EA8EC16F0020EE126D8B0E22AB8
:10584000002A640E005CF1E3030E026EE60E016EA8
:10585000800E036E030E056ECE0E046E800E066E75
:105860000650E56E0550E56E0450E56E0350E56E9A
:105870000250E56E0150E56E38EC23F0060EE1268D
:10588000D8B0E22A006AD1D7E4CF06F0E4CF05F021
:10589000E4CF04F0E4CF03F0E4CF02F0E4CF01F072
:1058A000E4CF00F0E4CFD9FFE4CFDAFF1200DACF83
:1058B000E5FFD9CFE5FFE2CFDAFFE1CFD9FF00C0A6
:1058C000E5FF01C0E5FF02C0E5FF03C0E5FF04C03E
:1058D000E5FF05C0E5FF030EDBCF00F0040EDBCFD4
:1058E00001F00201AD5102E0020E4AD00401045160
:1058F00001E0F29E0050012600C002F00050100DA1
:10590000F3CF00F00150025C36E2025004010419AA
:105910002EE0000E0024036E046A020E0422090E1B
:105920000326D8B0042A03C0E9FF04C0EAFFEFCF82
:1059300003F0D8900336046A056AE60E03266D0E5E
:105940000422000E052203C0F6FF04C0F7FF05C0C5
:10595000F8FF0900F5CF03F00900F5CF04F0031EAE
:10596000041E035002019B17045002019C17100EE5
:105970000026022AC7D70401045101E0F28EE86A2A
:10598000E4CF05F0E4CF04F0E4CF03F0E4CF02F07D
:10599000E4CF01F0E4CF00F0E4CFD9FFE4CFDAFFA9
:1059A0001200DACFE5FFD9CFE5FFE2CFDAFFE1CF92
:1059B000D9FF00C0E5FF01C0E5FF000EE56E800ED7
:1059C000E56E000EE56E690EE56EEA0EE56EE3EC3F
:1059D00028F0006E050EE126D8B0E22A005002E061
:1059E000010E50D02CEC35F00401046F0401045179
:1059F000100DF3CF00F0016A000E0026020E012206
:105A0000030E0026D8B0012A00C0E9FF01C0EAFF5A
:105A1000EECFAEF2EFCFAFF2AEC2E1FFAFC2E2FF28
:105A2000E5CFE9FFE5CFE9FFFC6AE950FC5C08E25D
:105A30000500E550FF6EE550FE6EE550FD6EF5D7B2
:105A4000E5CFFBFFE5CFFAFFE5CFF4FFE5CFF3FFAE
:105A5000E5CFF8FFE5CFF7FFE5CFF6FFE5CFF5FFA0
:105A6000E5CFEAFFE5CFE9FFE5CFD9FFE5CFDAFFE4
:105A7000DACFE2FFE5CFE0FFE5CFE8FFE5CFD8FFE3
:105A80001000E86AE4CF01F0E4CF00F0E4CFD9FFE2
:105A9000E4CFDAFF1200DACFE5FFD9CFE5FFE2CF9E
:105AA000DAFFE1CFD9FF00C0E5FF01C0E5FF02C08A
:105AB000E5FF03C0E5FF04C0E5FF05C0E5FF030EF9
:105AC000DBCF00F0040EDBCF01F00201AD5102E0AC
:105AD000020E48D00401045101E0F29E005001265C
